:020000041000EA
:10000000F2EB88716C53001090530010A8000010A0
:1000100090A31AE7D3DEFFFF420101114403000061
:100020003600001000200820FF04000024640000B7
:10003000793512AB79A8972100109381B14217212D
:100040000810130121FC171500101305B5E77310F4
:100050005530732540F135ED1707000013070705EC
:100060000C4391C55043144731071D28D5BF971540
:1000700000109385A50317260010130626C821A09B
:1000800023A005009105E39DC5FEEF109037592888
:10009000EF10D0360290FDBF884108C291051106CD
:1000A000E36CD6FE82800100905300100000002017
:1000B000A81000203864001000000820000008206C
:1000C0003864001000100820001008200000000014
:1000D000828021651305C5DF028552B837140020E0
:1000E0008347842299EF9307000089CB375500108E
:1000F000130545F397000000E7000000854723043F
:10010000F42252BE9307000089CFB715002037555F
:1001100000109385C522130545F3170300006700FF
:1001200000008280411106C622C437240020EF104F
:10013000F04FB5463146130544C6B7050740B52212
:100140001305800CEF10401C130544C6F9454D22E1
:100150001305800CEF10401B130544C68545612232
:100160000565130505FAEF10201A130544C68945E5
:100170009D2A0565130585BBEF100019130544C6BC
:100180008D4595220565130505FAEF10E017130557
:1001900044C69145892A0565130505FAEF10C01676
:1001A000130544C6954581220565130505FAEF1030
:1001B000A015130544C699453D220565130505FAAA
:1001C000EF108014130544C69D45312A05651305BB
:1001D00005FAEF106013130544C6A14529220565F1
:1001E000130505FA37540010EF100012130444F3FE
:1001F0002285EF10104E1305803EEF10E010CDBFAA
:1002000045C537170020130747E21443032347006F
:100210009358860093D7860013D806011378F80FF9
:10022000E19FC2971378F30FC297C6971378F60F22
:1002300003578700C297AE97371800204111B307C4
:10024000F0400348C8091AC42316E10036C213D788
:100250008740A305E100A303B1002305C1002306E5
:10026000F100A304110118416300080254001306B1
:10027000E1001C4F93F70702EDFF9C8285061CC32B
:10028000E399C6FE41018280BD57A305F1005400E9
:1002900070001C4F93F70702EDFF9C8285061CC37C
:1002A000E399C6FE4101828082800DCD85CD41114A
:1002B00006C622C426C2AA870CC1B6842E85F9467A
:1002C00089652382D700938505583284EF10603307
:1002D0002285894535202244B240268592448945AD
:1002E000410139A8828001C52E86C94511BF82808F
:1002F00019C5034645003356B60A994511B78280A1
:10030000B78703409107B347F52098438566BE96AB
:10031000134707041377070C3786024098C23365EA
:10032000C5200D67BA974CC11307001098C382808F
:1003300039713753001022CC2A84130543F406CEBA
:100340002ED232D436D63AD83EDA42DC46DEEF1030
:10035000503801CC4C1022852EC6EF1010053755B1
:100360000010130545F5EF10D0360545EF10D00805
:10037000F3760430B71700209387B73E1397370002
:100380003317E028F19B2FA8E7443378E800E31CFB
:1003900008FE0F00300393D735003E95188193F780
:1003A0007500B317F0283378F700631008025D8FEB
:1003B00018890F003003B71700209387073EA385E5
:1003C0000700A18A73A0063082804111328506C6DB
:1003D0008537737E0430B71700209387B73E139894
:1003E000370033180029F19BAFA80745B3F808017F
:1003F000E39C08FE0F00300363F6C60015A805064F
:1004000063E8C60293573600AA9783C8070013789B
:1004100076003318002933F30801E31203FEB3E832
:1004200008019356F601328523801701F58D11A03E
:100430007D550F003003B71700209387073EA38533
:100440000700137E8E0073200E3091E182804111EF
:100450003A8506C6F13D371700200345D709DD462A
:1004600093071500E19F63F3F600C147A30EF70859
:100470008280AA853757001037250020130787F59B
:100480001305C5C6FD466146A9B7B7160020938679
:10049000063E8147130600020F0030033387F60043
:1004A000230007008507E399C7FE828081463D4807
:1004B0001D459305400393F736008A073317F8006C
:1004C00013D626004207518F733037BEB317F5009D
:1004D000C207D18F73A037BE8506E39EB6FC73605A
:1004E000043082809357550086073315A028C176C3
:1004F000E98E138717004205558F5D8D91C97330C2
:1005000025BE733027BE732005BE732007BE8280D0
:10051000733005BE733007BE828093574500F3A742
:1005200007BEC1833D8933D5A74882809377F50004
:10053000B317F0281181C207C98F73A027BE82802C
:10054000F3275030F19B3345F5200325050DB717F0
:100550000020938707E31D8D133505038280011169
:1005600006CE73770430B71700209387973E939693
:100570003700B316D028F19B2FA6D744758E6DFE99
:100580000F003003F327503013054503F19BB347A9
:10059000F52094436380D502B71700209387470660
:1005A000638AF6002EC62AC43AC2EF100044B24550
:1005B00022451247F3275030F19B3345F5200CC1FB
:1005C0000F0030030F003003B71700209387073E5A
:1005D000A3840700218B73200730F24005618280DD
:1005E000797106D673780430B71700209387973E49
:1005F000139737003317E028F19BAFA6E744F98E35
:10060000EDFE0F0030030383F1806342032AB71825
:100610000020B3276320938808E333CE1721834655
:10062000AE0093922700931E1300A387D180F32777
:10063000503013054503F19BB347F52003AF070086
:100640009307F00233071F4163E8E71C8347BF00AD
:10065000FA8F636FF60EA305CE003716002013063F
:1006600006E63306C6412322BE00B70610009315E6
:100670009600B7FE0F00F58DB37ED60193878200FA
:10068000B386F800B3E7D501B7B5AAAA9385B5AA92
:1006900009874D9F135346017E031376E67FB30609
:1006A000DF40B3E7670052065D8E0563939716003F
:1006B00093D83600939576001366F62E93F848008B
:1006C000B3F76700931EB0282320CE002305EE0069
:1006D000B3E7170133F7D5019395160003264F00B2
:1006E000D98F93F5056013D72600CD8F13770710A8
:1006F00093981600D98F93D5160093F8080813170E
:100700001600B3E7170193F505048A0693F68603EE
:1007100033776700CD8F3297D58FE97685061377CB
:10072000078052061317B748D58F1366760E231429
:10073000FE001367770B1316F6282320EF00232201
:10074000CF00728F2DAA83C6B700637FD616BE8FE7
:100750000387AF00B327E720B3C71721E35507FE90
:10076000939315008567B3F3F300AE9393F303807F
:10077000D2059393B34893E5750EB16293E3730B7F
:100780009395F528938222E493868F00B306DE408A
:100790009A9EB3CE1E21939716008568B3F7170172
:1007A00093D8360093F8480023856F00B3E717010C
:1007B0001313B02893987600B3F8680013931600CB
:1007C000B3E717011373036093D82600B3E76700FC
:1007D00093F8081013931600B3E717011373030877
:1007E00093D81600B3E7670093F808048A0693F6D7
:1007F0008603B3E71701D58FE9768506D58F239455
:10080000FF0023A07E0023A2BE0023945E00238568
:10081000EE00A385CE00A5A0B7170020938747065A
:100820006310FF1AB7170020938707E6B387C74105
:1008300013979700B706100037FF0F0033FFE7014B
:10084000758F93D647013367E701FE0693F7E77F7D
:10085000558FD207D98F769371773343132193E75E
:10086000F72E130727E4FD562322B300A305C30088
:10087000728F2320F3002314E3002305D300F32712
:100880005030F19B3345F5202320E5010F00300364
:100890000F003003B71700209387073EA38407009B
:1008A0001378880073200830B2504561828032C8C6
:1008B0002EC62AC442C2EF1040130383F180424681
:1008C000B24522451248A1B383D38F00938782009B
:1008D000C6979392330093868F0093F20202B387F8
:1008E000F640969793D2130022D413F40204A297F1
:1008F0001394130013740408A297139423004AD08E
:1009000093F202302289969713D4230093D2730076
:10091000937309409E9793F202019373E400B3E24C
:1009200072009313B0289697B3727400B387574040
:100930001394770026D293921700B3747400056461
:1009400093D33700B3F2820093F34300B3E2720013
:1009500093931700B3E2920093F3036093D42700BC
:10096000B3E2720093F4041093931700B3E2920081
:1009700093F30308B3E272009393150093D4170026
:10098000B3F38300AE9313F404048A07B3E2820046
:1009900093F78703697493F30380D205B3E7F200FA
:1009A0009393B3489302140093E5750E2254925426
:1009B0000259B3E2570093E3730B9395F528F9B30B
:1009C00032CE2ECC76CA2AC842C672C41AC2EF10E2
:1009D000C001B71700207246E245D24E4245324868
:1009E000224E1243938807E335BDF32750BE139779
:1009F0000701814563490700918393F7F71F9387A8
:100A000047039395270073760430B7170020938728
:100A1000973E139737003317E028F19BAFA6E744C2
:100A2000F98EEDFE0F00300337170020130707E3A0
:100A3000B307E540B7B6AAAA9386B6AA8987D59F19
:100A4000E59FF3265030F19AAE9694426384A60453
:100A50008306A700638AF604830667016384F606AB
:100A6000830627026382F6068306E7026380F606A2
:100A700083C6F180A387F1802305D5000F003003E2
:100A8000B71700209387073EA3840700218A7320AD
:100A90000630828073275030B7160020719B2E9746
:100AA0009386460614C3E9B78146B3A6D620B3C6DB
:100AB000E62071777D58130727E4238506012394E8
:100AC000E6007DB78546D5B78946C5B78D46F1BFE7
:100AD000AA85375700104111130747F71385018185
:100AE0009546014606C6F530634605009307300378
:100AF0003385A740B24041018280B7170020938719
:100B0000073EAE971CC18280011122CC26CA371441
:100B10000020B714002006CE1304040A9384840A2C
:100B2000637694024AC84EC61309F00FFD591C4063
:100B30009DC31532AA852285C937231224010F00CF
:100B400030032104E36594FE4249B249F240624415
:100B5000D244056182800132AA852285793F230231
:100B600034010F0030032104E36394FCF1BF411111
:100B700006C622C42A84EFF01F8EAA852285B53FBF
:100B8000FD572302F4000F003003B240224441011C
:100B90008280411122C42A84054506C6EFF07F8D6C
:100BA000B71700209387073EAA971CC00F00300399
:100BB000B240224441018280B71700209387073E4C
:100BC000AE971CC10F003003828083A731817377F9
:100BD0000430139637003316C028F19BAFA5C744E5
:100BE000F18DEDFD0F00300383A731810F0030033D
:100BF000238007009377870073A00730332010000D
:100C0000014581458280397106DE22DC26DA4AD828
:100C10004ED652D456D25AD05ECE62CC66CA6AC87C
:100C2000F32750BE13970701634E073013D94700CF
:100C30009377C91F13793900B3192029B70B0B40DB
:100C4000639E073237270020B3C72721130707C346
:100C5000B3C7E72083AA07008D6793874704DE9711
:100C6000371A001023A03701130A6AC07D54FD54BF
:100C7000039B8A0023AE3B0363570B0883D74A00CC
:100C8000ED9F63DC071483C76A006394071E039B10
:100C90008A0063470B0403A74A01332B6B21FD57DE
:100CA000336BEB20032C8B00032BCB006309FC2858
:100CB000B346792103A78B029C4A3306EC40998FF7
:100CC0006360F60483A70B02B3D7274995CB5E85F3
:100CD000EF00900863C66501E31CBBF8E37A85F971
:100CE00033201000F2506254D2544259B259225A61
:100CF000925A025BF24B624CD24C424D216182808F
:100D000023A88601E9B783A74A01332C6B215E85AE
:100D1000336CFC20832CCC00032D8C00EF00D0031F
:100D2000E3CE95F56389BC1A63CB0C1A83270C01BB
:100D300083254C01638B472303978A0003552C00BE
:100D40004207598D82972E87AA87B3E6E70063880A
:100D50000618635F071EB306FD40333DDD00B38711
:100D6000EC40B387A74103170C002324DC002326A3
:100D7000FC00E34507F003A84A013325E7201316DA
:100D80001700336505214C4583288500E3C8B7EE7D
:100D90006394F500E3E416EF2394EA0013858A00D8
:100DA00031A0832886004C46131617003A9663CD6F
:100DB000B7006389F51C3365062158853326E72083
:100DC00033660621E35F07FC2310EC002310650166
:100DD00083D74A00ED9FE3C807EA83A70A01737728
:100DE000043093963700B316D028F19B2FA6D74432
:100DF000758E6DFE0F00300383D84A00FD57239295
:100E0000FA009398586083A70A010F0030032380EB
:100E100007009377870073A00730E3C608E603A5B1
:100E20004A0103978A0033A818213368A8209385C4
:100E30008A0063440702032388000326C80039A000
:100E40006383C60ED887BE8563490700B327E720B2
:100E5000B3E7A720D447E355D6FE239015018318A6
:100E600008002310E800E3DE08FA83C76A00E38085
:100E700007E223830A00039B8A00FD555A87E3019A
:100E8000BBE603A54A01B327E7203A86B3E7A720CC
:100E9000B487D88713888A00ED9E63CF06003E880A
:100EA000E309B7DEB327E720B3E7A720B4873A8684
:100EB000D887ED9EE3D506FE80C7C4C7E302CBFE0C
:100EC0002310E80083D68A00328B948F2394CA00C3
:100ED000E31AB7FC7DBBE363A5DBE3D90CE403575E
:100EE0000C0083A70A012394EA00737704309396D9
:100EF0003700B316D028F19B2FA6D744758E6DFE10
:100F00000F00300383D62A0083A70A012310DC00D8
:100F100023916A010F003003238007009377870035
:100F200073A00730A1BB9447E37ED3F02390150153
:100F3000831808002310E800E3D508EE3DB7E31955
:100F40008BD771B38549CE870149B78B0B40DDB98B
:100F50005E853AC63EC40925A2473247B306F5006E
:100F6000B3B7A600BA95AE97FDBB9C492E852EC49B
:100F7000829735D5A2459C41D841C1BB8547B78BE7
:100F80000B40C9B1E3F916E381B5B7170020938789
:100F9000C7E7984B09C713853181A945B9BE4111EF
:100FA0008D4537050B4006C622C4492B3714002057
:100FB0009307C4E737080B4023A60701EFF0AFC93A
:100FC0009307C4E7AA850D45888B370700D0032314
:100FD0000700B7160020D84B9386063E370611004F
:100FE000AE967D16BD4894CBA380670090C7239131
:100FF0001701FD5509439148154699462392B700BC
:1010000023146704231C17072318C7082314D70ABF
:101010009D42A146A54F294FAD4E314E3543B948AB
:101020000546231CD70C2310A7062310570C2318A2
:10103000F70F2314E7112310D713231CC71323180A
:101040006714231417170C8F2318C702231C0700DB
:1010500037080B40B71500102320D802372700208F
:10106000938565C0232EF7C2EFF06FCF85450D4500
:10107000EFF04FC72244B240B7270B40A146B4C39C
:1010800013853181A94541018DBC37150020130519
:10109000C5E78280797106D62A882E8395E73ACEF5
:1010A00036CC32CA2EC82AC6C121424352463248E3
:1010B0003305A3403335A300B305B640898DE2461E
:1010C0007247014563C3050C83270801F37504309B
:1010D000139537003315A028F19BAFA8A744B3F8A8
:1010E000A800E39C08FE0F003003831828000325A6
:1010F0000801A18963CE0808032E4801B3A718216F
:10110000B3E7C72103DE07002311C8010F00300336
:101110002300050073A00530AC87054E1395080128
:10112000F295C605C581B3F5C50BD8CB94CB23A4E6
:101130006700D0C7AC8F4D8D03270801F3760430CC
:10114000131637003316C028719BAF25C744F18DA5
:10115000EDFD0F0030030356480003270801908F70
:10116000231218010F0030032300070093F78600B5
:1011700073A00730034708008327C8008966938659
:1011800046043317E028B69798C3B2504561828071
:101190000F0030032300050073A00530B2507D55C9
:1011A00045618280B283AA8710492E83F37504308B
:1011B000131536003315A028719A2F28A6443378CA
:1011C000A800E31C08FE0F0030038398270013F6E5
:1011D00085008C4B63CC0808C84B33A818213368B2
:1011E000A82003550800A88F0F00300323800500B6
:1011F00073200630035628008545139508012E9666
:10120000460645823376B60A232AE8002328D8000A
:1012100023246800232678002311C800518D984BA1
:10122000F3760430131637003316C028719BAF25B0
:10123000C744F18DEDFD0F00300303D64700984BF6
:101240002310C800239217010F003003230007006A
:1012500013F78600732007309883DC4789669386EE
:1012600046043317E028B69798C382800F003003F6
:1012700023800500732006307D5582800357A5002A
:1012800093D7054163D6E7045449B3A7F72018491B
:10129000B3E7D720F3760430131637003316C0288F
:1012A000719B2F28C7443378C800E31C08FE0F0049
:1012B0003003B087E99D13F78600B3460608630B39
:1012C000B6001C490F00300323800700732007304D
:1012D000014582806176D18EB48F85472303F50066
:1012E00014490F0030032380060073200730148157
:1012F0005845096613064604B316D02832973E8532
:1013000014C3828048818280011122CC26CA4EC635
:10131000AA8406CE4AC8892C1307803E3384E4028F
:10132000B7070080FD17B3B4E402B309A40033B4D7
:101330008900AE94269463F487003E84FD5993841B
:10134000A9FF33B934019307F4FF3E99636924037D
:1013500063058902112C3385A440B305B940B3B7A6
:10136000A4009D8D6349B002D5C5E2AD6244F24050
:10137000D2444249B2490561A5A4E3FD99FCED229E
:10138000814401493385A440B305B940B3B7A400F3
:101390009D8DE35BB0FCC92A3385A44033B5A4001E
:1013A000B305B940898D63C10502B7160010371522
:1013B00000209386A6BC1305C5E70147A6854A868B
:1013C000D533FD57E303F5FAB7060B40DC5263E76C
:1013D00027019856E31BF9F8E37997F883A7318141
:1013E0007377043093953700B315B028F19B2FA580
:1013F000B7446D8D6DFD0F00300383A731810F0061
:101400003003238007009377870073A007303320D1
:1014100000006DBF39D941B7F32750BE13970701BC
:1014200063580706B717002001119387C7E7D8470D
:1014300022CC26CA06CE9C83A2AC3A853EC63AC4CC
:10144000212A2247B247B305B440B3C7E7209C4BDB
:101450003387A440B3B6E400958D898F63CD05042E
:10146000A9C933200000B7060B40D8528147636BEF
:1014700087009C56018F3337E000B3B7970093B7CE
:101480001700D98FF2406244D2443E8505618280C4
:10149000B7060B40D8528147636BB7009C560D8F3F
:1014A0003337E000B3B7A70093B71700D98F3E8555
:1014B0008280E378F7FA4D283385A44033B5A40041
:1014C000B305B440898D63C70504B7160010B7177C
:1014D00000209386A6BC0147A68522861385C7E710
:1014E000D1316359A00237070B405C5363EB87028D
:1014F00018576394870063669702B7170020AA8580
:101500001385C7E7A53BB7060B40D8528147E36B6D
:1015100087F685B737070B405C5363F78700814731
:1015200095B733200000D1BF1857818FB337F00033
:101530003337970013371700D98FA9B7B787F4BF90
:10154000AA9793B7170013857181375600103E95FF
:10155000130606F96FE0DFE14C51AA8788572E8702
:10156000CC53E31DB7FE8280B7070B40CC5388579E
:101570002E87CC53E39DE5FE828037070B405C53FA
:1015800003288702BE865C53E39CD7FE3306050121
:10159000BE953335A6002E95636CF5026388A702CD
:1015A000B7070B40DC5363F7A70037070B405C53CA
:1015B000E3EFA7FE639BA70037070B4021A054531E
:1015C0006395F6001457E3ECC6FE8280E37A06FDCD
:1015D000B7070B40DC537D552A86E398A7FCE9BF8B
:1015E00037070B405C53E3EFB7FE639BF500B7078B
:1015F0000B4021A0D8536395E5009857E36CA7FEF4
:101600008280011122CC2A84194526CA06CEAE84D6
:10161000F52A49CDB787074037070004630CF40E5D
:10162000B727024098C3B7060240B737024098C3B5
:10163000A1069C42B377F740EDFFB787F8BFA297AA
:101640001387B18193B71700B3A7E7201945130794
:101650000010988F652A93173500B3D79702850736
:1016600013D7770029EB93040004854654D018D48F
:10167000185893771700ADE385679387C702A29741
:10168000545423A0070018D819453EC441220A0526
:10169000335595025854A2471306103013470707D5
:1016A0001377E70798C38D4610D834C4F2406244DC
:1016B000D2440561828041667916C166637FE60483
:1016C000FD16014754D018D41858B704400093842D
:1016D00004FC93771700CDD38D6793870703A297F8
:1016E0009306103094C35C50145419459A07B6976A
:1016F0003AC63EC4212AB7862B8F938656B7333518
:10170000D502A2478145AA072D8133D5A702B53559
:1017100032479DB73707000821B7858393166700C6
:1017200093F7F703B384F600BA863E8781B70000CB
:10173000B70701403327A5203347F7200328470088
:10174000C1676373F8005CC39387F5FF9308C5FF17
:1017500081E793B72800B5E7371800201308087E03
:10176000B347052103A307008D67BA97131EB0285E
:1017700023A0C7010A056319030203230700160605
:101780008567334666001376060EBA9790C3054602
:10179000637016078967BA971316B02890C34295ED
:1017A000C16714C15CC3828083274801B3D7670235
:1017B0008507B3A7F72001009387E7FFE3DE07FE65
:1017C0006DBF8D67BA970D4823A007011C47858B15
:1017D000F5DF0328070016068567334606011376F2
:1017E000060EBA97371800200A0590C31308087E22
:1017F000832807003316B028B3C8150193F83800C2
:1018000023A017011C47F18FF5DF69B7B717002038
:101810009387077E3345F52008418280B727B700BC
:10182000938707B0B3D7B70283280500C2063207F3
:1018300033E8E6003356F60263C40804B787054070
:1018400011676300F506B727024098C3B706024048
:10185000B737024098C3A1069C42B377F740EDFF2B
:101860000D670CC1110710C52A97930710021CC3FE
:101870001C41E3DF07FE23260501A1471CC382802C
:101880001C4193F7F703E39BB7FA1C45D207D183BA
:10189000E396C7FA5C4537770700F98FE39007FBBB
:1018A000828021674DB7B7B70D403707004098C316
:1018B00029C5B7C607B0B747F84F37870D4093869D
:1018C000360D9387D7F254CFA98F1CD34CD308D7AA
:1018D000B7B60D40B7070040370700029CC24D174E
:1018E000B7A7014098C7B70700079CC201EEB7A78A
:1018F0000D403707008098C38280B7870D4023AE24
:101900000700F9B73346C6203346C6203346C62003
:101910000E06B7070001637EF600B287A3AFF18021
:10192000B7870D40D0C337070040B7A70D4098C315
:101930008280FD173E86DDB7B78710403325A5208E
:101940003345F5204CC185471CC18280A167938730
:10195000A7DF9C8785458287411122C426C206C61F
:10196000A2AC634505001DC213640403A1679387FD
:10197000A7DF9C8711658545130525258297AA87D2
:10198000A6862286A94513052010829713640402B7
:10199000F1BFB7170E409387878298437DDF0F0012
:1019A00030038280B7170E4037170E409387C780E9
:1019B0001307C7820F00300323A007009107E39BA2
:1019C000E7FE82808567938707AA378704401CC398
:1019D0009307A0115CC7B7B6FA00B7A7044094C339
:1019E0005C43E3DF07FE828082803755001041119F
:1019F000130545FB06C6EFE0BF93411122C426C282
:101A000037540010B754001006C6130444EF9384F3
:101A1000C4F2637794001C4011048297E36D94FE36
:101A2000B2402244924441018280B747EFEF93874E
:101A3000F7B7B72602403707F4039CC25917B737E8
:101A40000240B706024098C3A1069C42B377F74014
:101A5000EDFF8280B7071150F847A1676303F700D5
:101A60008280B727115037070400F8C782803707F4
:101A700000207D17B7370240B706024098C3A10681
:101A80009C42B377F740EDFF828015654111130545
:101A9000352506C6653DB240AA87114541018287BA
:101AA000156541111305352506C64D35B240AA8787
:101AB0000545410182876FE05F9D411122C406C642
:101AC00026C24AC03704014023220408E53DB73747
:101AD00001400547D8DF7C40E39FE7FE0D47B7375D
:101AE000014098DB0544370701401C5FE39F87FEF8
:101AF00037366859A285130606F00947954637051B
:101B00000540293B154737968647BA86A2851306B6
:101B100006C0378505401933B726B700938606B04F
:101B20000146894511452931B7D6F008A28593862B
:101B3000061801461545ED3EB776DC02938606C0D1
:101B4000014681452145ED36B776DC02938606C015
:101B5000014681452545E93EB7D6F008938606182B
:101B6000014681451945E936B7D6F008938606182F
:101B7000014681451D456D3E11454939B7E71B4377
:101B8000938737E8B334F50201441949C98066AC3C
:101B900005045D33E31D24FFB24022449244024910
:101BA0004101828011E1828059A483A73182011111
:101BB00006CE91CFAA86372500102E87130545BA89
:101BC0006C007D568297F2400545056182801126A2
:101BD000F2400145056182800D45731025BE7D15DB
:101BE000E35D05FE056513050580731045307360E0
:101BF00004307310003482800290FDBF411106C68C
:101C0000E53F411122C426C237540010B7540010DA
:101C10001304C4F2938444F306C6C5336377940077
:101C20001C4011048297E36D94FEB240224492441A
:101C3000410182801C412E85B285828783475501F0
:101C400001114AC806CE2E89D1C36352C00622CCE8
:101C500026CA9C813284AA84D91781E7834745012B
:101C6000B9CB854701466303F40293061900854703
:101C700098823E888507591709E703C7F6FF4D1775
:101C800029EF8506E316F4FE635886009C40B305F1
:101C9000C4403305C9008297B305890083C7F5FFA7
:101CA0006244CD1793B71700238AF400D244F24060
:101CB0004249056182801C41375500101305853665
:101CC000894582970546E312C4FAF9B71C41F240F0
:101CD0004A854249B28505618287B305C84033050C
:101CE000C90063580601984036C63EC40297B24602
:101CF000A24798403755001013058536894536C6EA
:101D00003EC40297A247B2463E86A5BF397122DC87
:101D100026DA4AD856D206DEB28A4ED652D45ECEE3
:101D200026AD3684EFF05F84B7470F009387072412
:101D3000AA9733B6A700370700802E967D17BE8579
:101D40006374C7003A86FD55371A002013050A0A46
:101D500097E0FF0FE7808039FD57AA8B638FF40867
:101D600031C4B72900109389C9C303A4B18215C037
:101D700063930A0429A0638B8700004819C81C409C
:101D800026866AACFDDB83A77182F5F7829900484D
:101D90007DF4639D0B04F25062544259B259225AA9
:101DA000925AF24B2685D25421618280B7290010C5
:101DB000938949C35DBF5AD0294B29A0638B870003
:101DC000004815C01C4026866AACFDDB83A77182E3
:101DD000F5F7829922859305F1000546A307610175
:101DE0008299004865F0025BE3870BFA13050A0A43
:101DF00097E0FF0FE780603A79BF4A85EF306009CE
:101E0000AA84B9BF83A7B1821387B18299C76389B6
:101E1000A700138707019C4BFDFB91C108C382807B
:101E2000FDFD944B14C323A80700828045A379715C
:101E30004AD006D622D44ECE52CC2A89A307A1007E
:101E4000EFF08FF2B7470F0093870724AA9733B6B6
:101E5000A700370700802E967D17BE856374C700E4
:101E60003A86FD55B71900201385090A97E0FF0F40
:101E7000E780C02703A4B1822A8A05C426D229A0FC
:101E8000630DF400004809CC1C4005469305F100A1
:101E90002285EDDB83A77182E5F74D3300486DF4B1
:101EA0009254631A0A00B2502254F249624A4A8597
:101EB0000259456182801385090A97E0FF0FE78088
:101EC000C02DB2502254F249624A4A8502594561F6
:101ED0008280411106C622C426C22A84EF20707B6C
:101EE0008546AA8466AC3686153503A4B18211C432
:101EF0005C4091CB8297004865FCB2402244268525
:101F0000924441018280004865F4B2402244268513
:101F10009244410182808280A3870182828003C72C
:101F200055009307F00F0145631DF70083C7650057
:101F300089EB83C77500FD1781E71336960019C238
:101F400001458280B8812545A387E18282800545CD
:101F5000828085476384F50005458280834756006B
:101F60008346460003C7F182A207D58F014563036C
:101F7000F7008280411106C65C826380B702094780
:101F80006385E700B24041018280014513064006A7
:101F90008145EFF05F910545F5B76C823882A20567
:101FA00093F70510D98D89CB13D695003285058A14
:101FB00093F5F507EFF05F9A7D5513D69500C5BFF1
:101FC000375500101305051D82808547639FF50076
:101FD0005C82639EB70003475600834746009D46D8
:101FE00022075D8F81476307D7003E858280814746
:101FF0003E858280B7570010B2859306600A13862B
:1020000087126F10E0630547B757001018891385D2
:1020100087108280D4819081B881FC81A206D18E04
:102020004207558FE207D98F1307004B6383E70000
:1020300082804111014681457D5506C6EFF0DF9152
:10204000A3A7A184A3A5B184828003C5F1836FE017
:10205000EFCD138731841C43411106C622C426C22A
:102060004AC0A5C7F3760430139637003316C0284C
:10207000F19BAFA5C744F18DEDFD0F00300354C3B4
:102080001C43238001840F00300323800700A18AB2
:1020900073A006300144814403C5F183EFE0EFC72C
:1020A00011E90144814466ACB240224492440249A1
:1020B0004101828003C5F183EFE04FC766ACB240B7
:1020C000224492440249410182801304803E8144AB
:1020D000E1B7411126C2AA8401454AC006C62E892D
:1020E000EF10300959C10145EF10B00C3DCD22C4AD
:1020F000EFF08FC7B7470F0093870724AA9733B62F
:10210000A700370700802E967D17BE856363C7043E
:102110001385318597E0FF0FE78040FD31C501450C
:10212000EF10300509C50145EF10B00815E58145F0
:102130007D55EF007038F5541385318597E0FF0F1A
:10214000E780A0052244B24002492685924441011D
:1021500082803A86FD556DBFA6854A860145EF10FF
:10216000B007AA8471F9C1BF2244F554E9BF4111F7
:1021700006C622C4EFF04FBFB7470F00938707246E
:10218000AA9733B6A700370700802E967D17BE8525
:102190006374C7003A86FD551385318597E0FF0FBC
:1021A000E780C0F415C17D558145EF00F030014551
:1021B000EF10300D6DF9138531852244B240410195
:1021C00017E3FF0F670063FDB240224441018280A4
:1021D00001114AC84EC606CE52C4AAADEFF0CFB820
:1021E000B7470F0093870724AA9733B6A70037078E
:1021F00000802E967D17BE856374C7003A86FD5514
:102200001385318597E0FF0FE78040EE19E5F24036
:102210004249B249224A056182800145EF1060754A
:1022200045C922CC56C20144635020050145EF1038
:1022300050172A86B30789403346F60AB3858900CA
:10224000014521C2EF10700F81452A947D55EF00A2
:10225000B0260145EF10F002EFF00FB1A3ABA18261
:10226000A3ADB182E34424FD6244924AF240424964
:10227000B24913853185224A056117E3FF0F6700D4
:10228000C3F181457D55EF0030230145EF10607F9C
:102290000145EF10006EAA870145F9D7EF107010C5
:1022A00071F1EFF06FAC83A7718337A7070083A6A6
:1022B000B183130707123E97B337F700B697E3E5EC
:1022C000B7FAE391F5FAE361A7FAE34124F769BFAE
:1022D000F2404249B2498146014713853185224A7D
:1022E000A3ABD182A3ADE182056117E3FF0F6700C5
:1022F000C3EA411122C413853185814506C697E0A2
:10230000FF0FE78020D031E5138731841C4395CF40
:10231000F3760430139637003316C028F19BAFA52F
:10232000C744F18DEDFD0F00300383C7018485455F
:1023300054C3E19F18432380B1840F00300323006E
:102340000700A18A73A00630A1C7B2402244410110
:10235000828081457D5526C2EF0010160145EF10A1
:102360004065AA841385318597E0FF0FE780E0E29E
:1023700099C883A7F18481CB22449244B24003A53B
:10238000B18441018287B24022449244410182805B
:10239000EFE0BFCF2A84EFF02F9D9307853E33B641
:1023A000A700370700802E967D17BE856374C7008F
:1023B0003A86FD5522852244B240B7260010938606
:1023C00026058547014741016FE0DFCC4111B70782
:1023D00000D022C4804306C6EFE03FCBEFE09FF27F
:1023E00063078500B2402244014541018280B7570E
:1023F000001083C7C73881450145EF1090721385DF
:1024000031851C41DDC70545EFE08FECB725001095
:10241000AA87619D9385252FA38FF182EFE02F94EA
:1024200003C5F1838545EFE0EF8B3945EFE04F9130
:1024300025E19387318423A0070023A20700EFE062
:10244000DFC42A84EFF04F929307853E33B6A7008E
:10245000370700802E967D17BE856374C7003A86C5
:10246000FD55B7260010228593862605854701472E
:10247000EFE05FC2E34805F6371500201305850637
:102480008545EFF03F98B2402244054541018280E6
:102490000545EFD01FFEAA8513853184EFE0CFF10B
:1024A000B72500109385A50401463945EFE04F9309
:1024B000E1B7EFE0CFEB81BF375500101305C5261C
:1024C000828037550010130585218280B7270020B0
:1024D00083C607C5011106CE2A87B9CE11EF37256D
:1024E000002093079040130585803C8D9307403072
:1024F0001C8DF24005618280954763E9E704B75778
:10250000001093870720372500203347F720130555
:1025100085801843130625008147CD4531A0148ED0
:10252000050709066381B70214838507E19FE5FA71
:10253000860793E707306DBF2AC6C545138507C5D3
:102540009120324761BF930780325DB7014555B78F
:10255000156539711305753406DEEFF02FBFAA87B4
:1025600005466800A5458297D24762471386B18524
:1025700093D787695CC2F25013578769A3ADE18492
:10258000216182808547638DF5189387B185988393
:102590002548FD1593564740138606036345D81812
:1025A000108985466389D51C3D8B25469306070314
:1025B000636EE61654890947638FE51AD883254868
:1025C00093564740138606036345D81630898D46D7
:1025D0006383D51A3D8B254693060703636EE61485
:1025E000748911476389E518B88325489356474095
:1025F000138606036345D8142302C5009546638CF1
:10260000D5163D8B254693060703636DE612A3029C
:10261000D50019476381E516F8832548935647404E
:10262000138606036343D8122303C5009D466384C3
:10263000D5143D8B254693060703636BE610A30371
:10264000D50021476389E51203C747002548935603
:102650004740138606036340D8102304C500A546EF
:10266000638BD5103D8B1306070363E9E60EA304C5
:10267000C50029476381E51003C7570025489356D5
:10268000474013860603634ED80C2305C500AD46AC
:102690006383D50E3D8B2546930607036366E60CE0
:1026A000A305D50031476388E50C03C767002548BB
:1026B00093564740138606036354D8001386760367
:1026C0002306C500B5466388D50A3D8B254693068B
:1026D00007036374E60093067703A306D500394722
:1026E000638BE50883C77700254613D747409306D9
:1026F00007036354E600930677032307D5003D479D
:10270000638BE506F98FA5461387770363E4F6002C
:1027100013870703A307E500C147638EF50441054E
:10272000230005008280138676039DBD9306770300
:1027300051B51386760359BD9306770355B51386B5
:1027400076035DBD93067703D9B513867603E9BD9D
:1027500093067703EDB51386760301B71306770367
:1027600039B71386760315B793067703A305D5000B
:102770003147E39CE5F22E9523000500828041114C
:1027800006C622C47D2437041150B147B705002086
:102790003CDC9385A5321306F00F3945EFD05FE49A
:1027A000B727002013060004138507838145EF2017
:1027B000A055AA870545C88BB705105023A2050868
:1027C0002E87130800082320070893060710130616
:1027D000000442979385450898D7239CC70023A2FD
:1027E0000700A3800702239CC702A38D070223A230
:1027F0000702239107038CC7D4C7D4D797E0FF0FF4
:10280000E780209D054528C037070020F56778C47C
:10281000C1072328F408B2402244B727115041676A
:10282000F8C741018280854539456FD0BFCB372538
:102830000020130505850146814515ACA381B186AD
:1028400099C5B72711503707020023A8E7088280EF
:102850009C8193F7F70791C38280D8819547E31D48
:10286000F7FEB881B707115098C38280F081054800
:102870000D8A630F060FA88103C7550083C5450065
:10288000935675009378F507B3A7D8203723002017
:1028900022074D8F9607130303839A971377F77FC9
:1028A000B3C50601A88BA3810700A38DC700239C95
:1028B000E700CC8B63850609B70510509385450862
:1028C00013956800B3E5B8201A950CC523A0050040
:1028D00063850808B70710509107B3E7F8205CC17B
:1028E00001111307F703198306CE89479315770063
:1028F0006304F6009315670003A67186B3A7D8207A
:1029000096073307B6009A97A3A3E186D0C7B715F9
:102910001050637AB706B3A7D82096079A9703C7D3
:10292000B701B7051050D4432D8E9317A701F2407D
:10293000D18F9397F7299CC2054505618280B7071F
:1029400010509387070893956800B3E7F8209A958D
:102950009CD523A00700639F08009606B707105078
:102960009A969387071023A20600DCC6054582804D
:10297000014582803705105021059387F8FFB3E7A2
:10298000A720DCD1B1BF3EC636C446C2EFF0EF850A
:10299000B247A2469248D047B72700201383078347
:1029A0009DBF17E3FF0F6700C38293F7F5079D8173
:1029B000B3A7B720372500209607130505834111DB
:1029C000B2853E95368606C65D20B240054541017A
:1029D000828013F5F50719E593B7150085073727AA
:1029E00011503CD79D813325B520B727002016050F
:1029F000938707833E951316B028814517E3FF0F91
:102A00006700030D93F7F50791E382809D81B3A7DB
:102A1000B72037250020960713050583FD753E95E1
:102A20009385F57F0146A301050017E3FF0F6700BB
:102A3000230A411106C6B7270240B706001094C307
:102A400037070240B737024094C321071C43B3F74E
:102A5000F640EDFF0566814537051050EF20C02A8E
:102A6000B240B70711502547F8DB41018280411180
:102A700022C406C68547231AC500231B05000CC9BE
:102A8000230DF5002A8497E0FF0FE780C0FE19C5EB
:102A9000B72711503707020023A8E708228597E0DF
:102AA000FF0FE780C0FF01C98547230EF400B24045
:102AB00022444101828022852244B240410117E331
:102AC000FF0F6700E305011126CA4EC6B759001073
:102AD00022CC4AC852C403C7F18706CE2A899389FB
:102AE0008932014481470DA083A73188B697BDCBB9
:102AF000DC474A850504829703C7F187619CA2875A
:102B00009306170063CA8600998F931654009607A0
:102B1000E36CE4FCCE97E9BF3715002013050540B0
:102B2000130640058145EF20201EB7160020FD57F3
:102B30009386464037170020DCC69CC613074741E2
:102B4000DCC29CC21CC35CC31CC75CC71CCB5CCB77
:102B50001CCF5CCFF2406244D2444249B249224A7F
:102B6000056182800290F2406244D2444249B249F7
:102B7000224A0561828082808280014582800145EF
:102B800082808280828082808280B7170020938733
:102B90000740C8833335A0008280B7170020938791
:102BA00007408843135525488280011152C4371AC3
:102BB00000200347EA0906CE9307F00F6316F70ECD
:102BC0006389050E56C25AC0BAAE371500201306E7
:102BD000400581451305054022CC26CA4AC84EC689
:102BE000EF20801213853187A3830188EFD03FF84F
:102BF000371500201384318713054509A3A7818663
:102C0000EFD03FF93714002013050408EF2000052A
:102C100013040408B7270010A3AD818693876700CB
:102C200099C71385F187EFF00FBEA3A1A18837598B
:102C3000001003C7F18713098932014481470DA0B1
:102C400083A73188B69795C7DC4385C7829703C7AA
:102C5000F1870504619C93061700A28763C786026B
:102C6000998F931654009607E36CE4FCCA97DC43F3
:102C7000F1FF02906244D2444249B249924A024B67
:102C80000145F240224A05618280FAAE230F5A09BB
:102C9000EFF0FFAE79DD5685EFF0FFB86244D24425
:102CA0004249B249924A024BF240224A0545056127
:102CB000828002900145F1B75971DAC8371B0020B4
:102CC0000347EB0986D69307F00F6306F71EA2D4DD
:102CD000CECE37540010B7190020A6D2CAD0D2CC1D
:102CE000D6CADEC61304042893890940214983AB60
:102CF000B18783A74B017377043093963700B316DF
:102D0000D028F19B2FA6D744758E6DFE0F0030039F
:102D100023ACEB004C105E85EF10902B03A74B010A
:102D200083A78B010F00300323000700A18B73A042
:102D30000730630B0516834751026360F916B3C76A
:102D400087209C438287A257DDD33255829745B7AF
:102D50008345810293F6F50713D77500B3A7362193
:102D6000BA9703C74703799B238AE70203C7470340
:102D70006D9B238AE7026384061483C7470103C758
:102D8000F18763FEE71003A731889607BA97638C33
:102D900007109C4FB25603469102034541028297A9
:102DA000B9B783C771886380071083C77188FD171F
:102DB000A383F18883C771889DFBB7170020938B8D
:102DC000074083C70B00E2C4014593E71700238047
:102DD000FB0083C74B03034C4102F99B238AFB0290
:102DE00083C74B03ED9B238AFB0283C75B03F99BDD
:102DF000A38AFB0283C75B03ED9BA38AFB02EF0060
:102E000050148347810213070006F98F638FE70090
:102E1000130700046387E70E225785467D8B630DF9
:102E2000D7148946630ED70E5DCB0290034541024D
:102E30008145EFF01FBA0345410293050008EFF00A
:102E40005FB9264C6DB583A70900858BE38107EA3E
:102E5000253B71BD03454102BD31EF00B00CA257C7
:102E60002381F90069B583C73900858BE38107E8C1
:102E700022551933ADBD03454102B131EF00900A2F
:102E80001133B5B583A70900858BE38207E603A557
:102E9000090013553548C53999BD029089BD93067F
:102EA000170063D6F6020290265496540659F64946
:102EB000664AD64AB64BB650464B65618280B256DA
:102EC0000346910203454102EF00300D0DB5998F85
:102ED00037570010960713078732BA975DBD13075F
:102EE00000026384E722B1F3834791022547E36E32
:102EF000F7F2375700101307472AB3C7E7209C4360
:102F00008287372500101305A5FCEF00900362852A
:102F100030108545EFF06F8BE30A05F0264CC1BBFE
:102F20008345C10213F70507E31107F013F7F5070F
:102F3000B326772113D87500C29683C6460103C60F
:102F4000F18763E7C60A130516006340D520918E0A
:102F500037560010960613068632B296638A071E0D
:102F6000C84A36C2EF00E07D924662853010DC4AE6
:102F70008545829745F55DBD8346C1023D47E367C0
:102F8000D7EAB387DB0083C7470003C7F18763EA4B
:102F9000E70693061700E3CBF6E8B38BE740B75795
:102FA0000010960B93878732BE9B03A54B01EF0061
:102FB000407983A74B01301062858545829739FDA2
:102FC0008347810293F70706E39207E6834791025E
:102FD000854BD917E3ECFBE4EF00A07603479102A1
:102FE000A9476302F72462852C10DD2B264C01B320
:102FF00003A631889606B296638C0714E38806E22E
:1030000085B703A731889607B30BF700E39F0BF84A
:1030100031BD8347A10203C71B006380E71E03C7BE
:103020001B0063130732A380FB006386071CFD1798
:1030300013F5F70FEFF0EFC801C9E6C25C81BE8C53
:103040008947638FFC20964C02900290A3800B006E
:10305000F1BB83C71B0062858546130621022C1035
:103060002301F102F12B264C59B10355A102BD47B2
:1030700013578500619DE3EBE7DAB757001093879C
:10308000C72CB347F7209C4382872810C12583456E
:10309000A1026285EFF0AFF983C70B00264C93E7DE
:1030A00027002380FB00A1B10357A1028547E31F3E
:1030B000F7D683C70B0062852C10DD9B2380FB00B5
:1030C0000523264C2DB183C70B008946628513D793
:1030D0002700758F93D75748D98F130621022C10DC
:1030E0002311F102B12B264C19B10357A1028547D8
:1030F000E31EF7D283C70B0062852C1093E787008D
:103100002380FB00F129264CDDB68346C1023D47F2
:10311000E36ED7D0B387DB0083C7470003C7F187CF
:1031200063FBE70403A731889607B30BF700E38F2F
:103130000BCE03A54B01312583A74B0162853010CF
:1031400085458297E31C05DCD5B18146E39007CE27
:1031500083479102054513F6D70F630BA602E3964A
:1031600007CCB3277721C29783C747036285894677
:1031700093D717489DB793061700E3C9F6CAB38BD8
:10318000E740B7570010960B93878732BE9B55B721
:103190000355A10205ED36C642C43AC20345EB0908
:1031A000638DC708EFF0FF8212472248B246B3276B
:1031B0007721C29703C7470313672700238AE702D3
:1031C00003C7470313671700238AE702E38806D47F
:1031D000C84A36C2BD23924630108545DC4A628516
:1031E00082970145B92B83A74B0393D78748E38C7C
:1031F00007DE264CEDBCEFF0FF9862852C10CD2643
:10320000264CF5B4EFE0DFDB2A86E30105C27C82C1
:1032100034826285A207DD8E2C101D21AA87E387E8
:1032200007C0264CE9B46285DE862C101306210205
:10323000230101023121264C5DBCEFF0AFFC1247A7
:103240002248B246B3277721C29703C74703759B2D
:10325000238AE70203C74703799B238AE702BDB7A6
:10326000EAC06EDE03477500B715002083C605402F
:10327000935767481357574812079607D98F13F784
:10328000F6FCD98F2380F5407C81348137170020EC
:10329000A207D58F37560010330DF500930747412D
:1032A00093059500930D86323EC263F9A509DC8132
:1032B0002D4785486397E7009C8183C83500BE95FC
:1032C000DC8111476392E70683C7F1873303BD4072
:1032D000334303088146014763FDF60483A7318821
:1032E00013965600B297A9C303AE07011A866285EA
:1032F00036CE46CC1AC62EC43ACA3EC8029E2A868C
:1033000013359500A2453243E248F24609E5C2472B
:1033100052476378C30A83C7F1878506E19E138607
:1033200017003687E35AD6FA0290964C064DF25DA6
:1033300029BBB307F7409607EE977DB7EFF07F8480
:10334000964C064DF25D55BD814562853EC4EFF059
:10335000EFCE6285EFF0EFE403C72B0062853AC23F
:10336000EFF06FF61247A2472381EB006DB9EFF043
:10337000DF802A86E30C05AA148262852C10C924FA
:10338000AA87E39007EA5DB48355C102EFF00F947A
:103390002A867DF161BC89476308F708EFF02FFEAC
:1033A0002A86E31605E659B4EFF00F912A86E30E5C
:1033B00005A66285C9462C106124AA87E39307E617
:1033C000B5B405456389A8046387080203CE2500C8
:1033D00081471303F00F39A08507E19F2302D50031
:1033E00063FB17013305FE00619D5E95834E45002A
:1033F000E3846EFE15BF12453AC832C62EC4EF10E4
:10340000000983C7F187A245324642478507B29536
:10341000E3DDE7E811BF884BB7470010938707D17A
:10342000E316F5FAE6885DB7EFF0AF892A86E31078
:1034300005DEE5BA55CA79715AC8371B002022D477
:1034400026D24AD04ECE52CC56CA5EC662C466C29E
:1034500006D66AC02E84BE8BBA8A3689B284130B14
:103460000B40814C9549371C0020054A15A883451F
:103470002B00034DEC09EF00D07AAA87A2856A855C
:1034800085CFEFF0AFBE15C93C8013D77700630638
:1034900047052380FA00850C638694051C803E94C2
:1034A0005C802285639B37016C808D896397250141
:1034B0002C8093F50507C5DD029002900145B250BE
:1034C000225492540259F249624AD24A424BB24BB8
:1034D000224C924C024D456182802380FB00850C7A
:1034E000E39E94FB0545E1BF05458280BC8193F7CF
:1034F000070781C70290014582804111B71700205C
:1035000026C22E85AE8483C52740B717002022C46B
:1035100006C603C4E709EF00D07001E90290B2408B
:103520002244924401454101828066AC2244B2406B
:10353000924441016FF08FB313D7750093F7F507ED
:10354000130747033715002083A5F186B3A7E720AB
:10355000130505403E956F00F06113D7750093F792
:10356000F507130747033715002083A5F186B3A796
:10357000E720130505403E956F00106637150020C3
:1035800093F7F5071305054013D77500B3A7A720D8
:10359000BA9703C74703058B01C702900145828094
:1035A00003C74703371500200345E509011106CE7F
:1035B00013671700238AE7023EC6EFF00FBF11ED35
:1035C000B24703C74703799B238AE70203C7470330
:1035D0006D9B238AE70202900145F24005618280DB
:1035E00003C6450083C6550003C7650003CE05002A
:1035F00003C3150083C8250003C83500B717002092
:103600009387C73C2382C700A382D7002380C701CA
:10361000A380670023811701A38107012383E700AB
:1036200003C7750023A607008146A383E7008C81AA
:10363000014623A4070093C5F50F93F505083DBF88
:1036400003C8550003C7650003CF050083CE1500EE
:1036500003CE250003C3350083C845000111B71709
:10366000002006CE9387C73C2380E701A380D701C3
:103670002381C701A381670023821701A382070169
:103680002383E70003C7750090C723970700A38330
:10369000E70003C7750003C8650022073367070109
:1036A000B356D70A2396D70005CB2A88A1C615CED4
:1036B0008387070013070004B3D6E60A63C4070430
:1036C000371600201306C63881454285453D11CD89
:1036D000F2400545056182808C818146014693C593
:1036E000F50F93F50508593D65F50290F240014547
:1036F000056182808C83014693F505084285BD3DB6
:1037000061F9E5B7B7170020B2852AC6368613855A
:10371000C73836C4EF10C0693248A2462A869305DE
:103720000008E9BFB71700209387C73C23A0070014
:1037300023A2070023A4070023A6070023A807004D
:103740008280B717002023AEA73C82800347650024
:103750000343050083481500034825006C81034698
:10376000450083465500B71700209387C73C238048
:103770006700A380170123810701EC8B2382C70018
:10378000A382D7002383E7000347750023A4070023
:1037900023A60700A383E7008280B7170020938742
:1037A000C73C9843011122CC06CE9D811357774820
:1037B0002A84630BB70299C60290F2406244014525
:1037C00005618280BE85EFF0AF88B7170020938730
:1037D000C73C984B09C73E8622858D450297054513
:1037E000F24062440561828003870700634107025B
:1037F000884761D5B715002036869385C53836C60B
:10380000EF10005BB246B71700209387C73C03D781
:10381000E7008C4703D667003697699FB6952397D4
:10382000E7008CC7630FE60293B606049DEA03D651
:10383000C7008387070013050004B306E640E99E2E
:10384000B3D6A60A63C207066303C708371600206B
:103850001306C63881452285EFF05FD231DD05457C
:1038600041B7984B11CB3E86894522850297B71701
:1038700000209387C73C11CD8C832285814693C558
:10388000F50F93F505080146EFF05FCF15D5054517
:1038900081BF81452285EFF0CF93228593050008F3
:1038A000EFF02F9305452DBF630FC700B71700201A
:1038B00036861385C73836C6EF10804FB2462A8643
:1038C0009305000849BF93050008014669B7814583
:1038D000014651B7011126CA06CEAA84EFF0EFAA1D
:1038E00009E5F240D24405618280EFF00FAB75F933
:1038F00037170020B3C79420B3C7F7201307472C0E
:10390000B3E6E720F0828E0769DEC10722CC33845C
:10391000E700228536C6EF00D0689307F00363E422
:10392000A70062447DBFB2460145EC82EFF0DFC0E4
:103930006DD92285EF00F066B2469307F003EC8262
:1039400063F2A7026244F240939774003716002096
:10395000D244130646243E969306000401450561B1
:103960006FF0DFC16244F240D244014505616FF05F
:10397000DFBE411122C406C62A84EFF00FA111E573
:10398000B2402244014541018280EFF00FA16DF960
:10399000B347842037170020B3C7F7201307472CFD
:1039A000B3E7E72003C54700B2402244058941013F
:1039B00082803345A5203345A52093173500371560
:1039C0000020C1071305452C41113E9506C6EF00A6
:1039D000D059B240410182803347A520C16701110F
:1039E0003347E720FD1722CC26CAB337F60013145D
:1039F0003700B714002013070401FD179384442CEB
:103A00004EC65D8EB30997004AC8699E2A894E85C5
:103A100052C406CEEF00B0682A8AEFF00F9711E982
:103A2000F2406244D2444249B2495285224A056179
:103A30008280EFF08F966DF5A294FC80F5D34E85D1
:103A4000EF0030561304F003E37CA4FCEC80014546
:103A5000EFF09FAE71D54E85EF00B054EC80637EE1
:103A6000A400371600201E09130646244A96930622
:103A700000040145EFF09FB065B70145EFF0FFADE1
:103A800045B7011126CA06CEAA84EFF00F9011E5C2
:103A90000145F240D24405618280EFF00F906DF94C
:103AA000B3C79420B3C7F7208E073717002093863B
:103AB00047021307472C22CC3384E60022853EC6FA
:103AC000EF00B04A0DC1B71700201387472CB2474B
:103AD0004AC80145BA97AC833E89EFF0FFA511E5CE
:103AE0006244424975B7624465B7939774003717CB
:103AF00000201307472493870704BA97BE852285C1
:103B0000130600043EC6EF00905983452900AA869B
:103B100009CD32462AC60145EFF05FA6AA87324595
:103B200091EB029062444249A5B7EFF01FA36244B3
:103B30004249B9BF62444249A9BF411122C4C16789
:103B40003344A52033448420FD17B337F6000E0418
:103B500037170020FD171307472C130444023A942B
:103B60005D8E26C2699EAA84228506C64AC0EF00E1
:103B7000D0732A892285EF00503F9307F00363E951
:103B8000A700B240224492444A8502494101828002
:103B90002685C53DB240224492444A8502494101EE
:103BA00082803345A5203345A5209317350037156E
:103BB0000020938747021305452C41113E9506C608
:103BC000EF00303EB24041018280411122C43714DF
:103BD00000201304442C22851306800C814506C660
:103BE00026C24AC0EF104012F167938707201CC419
:103BF0007D57A147B715002037150020A302E40028
:103C00002307F4009385C52F01478546130600045A
:103C10001305452DA3850188EF00B02C0547B71586
:103C2000002037150020BA869385C533130600049B
:103C30001305852EEF00F02A371900201305C93728
:103C4000EFC0FFF2B714002013854438EFC03FF2F5
:103C50001309C937938444382320240304D8B2407D
:103C6000232E0400232A04022244924402494101E3
:103C70008280B71700209387472C945B985395C296
:103C800019CB23AE070023AA070223A8070223A00B
:103C900007020545828023AA070223A807020545DB
:103CA000828065DB23AE0700DDB783C7B188411191
:103CB0003717002006C61307472C13F617002320DA
:103CC00007002302070001CE898B3717002085C724
:103CD000B2401305872E854541016F00107D3715D1
:103CE00000201305452DEF00707783C7B188371783
:103CF0000020898BF1FF1305872EEF003076B2404C
:103D0000371700201305872E854541016F00F07994
:103D100083C755000947639EE70003C76500631A20
:103D2000F700B71800209388482C83C7280089C75C
:103D30000290014842858280011106CEB881930726
:103D400040022A832380E80098812548BA95D881CB
:103D5000BA86631CF700636606039C81BE95D88112
:103D6000C29733C80708E308D7FE9546BA876303AE
:103D7000D70211476397E70003C75500A9476306B9
:103D8000F704014542C2EFF0FFB41248F240428509
:103D9000056182801A8542C62EC41AC2EFF00FF563
:103DA000B71700201243A24532489388472C19C9FF
:103DB000BC81A380F8009881BA954297DC81334892
:103DC000070845BF02900148D1B783C8050089465E
:103DD000B717002037170020C6951A859387672CE0
:103DE0001307772C368642C446C2EFF0AFE4924800
:103DF000224869D93908C29833C8080859B71C82C3
:103E00001307000293F707066393E7020347560080
:103E100037180020834646001308482C83480800C2
:103E20002207558F81466387E80036858280814668
:103E300036858280011106CE588293082002630ADB
:103E4000170763E0E8026304F704930710026316A0
:103E5000F70085476385F50A8546F240368505619A
:103E6000828093073002E31AF7FE85476382F50AE2
:103E7000F515FDF193070000E5D37C822C82014506
:103E8000A207DD8D97000000E7000000F1B785472D
:103E90006387F506B727001093874701D5DFF5152F
:103EA000C5FDB71500209385C52C0145EFE08F9621
:103EB00065B78547638EF5048D47E39FF5F87C82EF
:103EC000388237150020A2079376170033E6E70003
:103ED00093C516001305852E36C62302C80032C4CA
:103EE000EF00B05C93070000A5DB2246B245014518
:103EF0001356164897000000E7000000B1BFB7173F
:103F00000020B2859D461386C72CEFF06FF3A9B74A
:103F1000B285EFF0EFEC89B7797122D43714002025
:103F200026D24AD04ECE06D61304442C7C80A6ADB1
:103F300036896385B7083C80638B97020290014500
:103F4000B250225492540259F2494561828093073B
:103F5000000081CBB71700201385472DEF005003D9
:103F600061C90145EFF01F973C80639E970093075E
:103F7000000091C7014597000000E70000000145DF
:103F8000EFF03FB019C1054565BF37150020130597
:103F9000852EEF00807DE30809FE75F59377F90320
:103FA000FDF32C804E85EFF02FD971DD2C804E85EE
:103FB00081460146EFF08FDC054559B7B717002061
:103FC00093854724B71700201385472D33C606086D
:103FD000EF00B02D130700003DDB034754009306AC
:103FE000F00FE306D7F6E30409F6B717002093872E
:103FF00047243306F90031A08507E38AC7F4034755
:1040000054009483E39AE6FE3EC4B717002013855C
:10401000472D32C6EF00C077A247324671FD834577
:10402000540097000000E70000003246A247E9B7BD
:1040300097000000E70000002DB737150020411160
:104040001306C02481451305455906C6EF00D04B21
:104050003718002037170020371500201308485163
:104060001307076E9308000493070010814601466A
:1040700081451305C56BA921B240371800203717B9
:10408000002037150020130848551307C75B130598
:104090008559930800049307001081460546814521
:1040A000410139A93715002041111305C56B06C61A
:1040B000AD2937150020130585598529B2400545DE
:1040C00041018280411122C437150020371400209D
:1040D00006C6130444591305456C23000400EF0081
:1040E000F037371500201305055AEF003037A304C9
:1040F0000412A3020400B24022444101828003C79B
:1041000055009307F00F6304F70001458280797131
:1041100052CC371A002006D64ECE130A4A5983498C
:104120005A0083479A12B3E9F9006392090E56CAFE
:104130005AC822D436AF03C72A0003C40A0083C773
:104140004A002300EA005694D9CF37170020B7174A
:10415000002026D24AD05EC662C466C2B304C40040
:10416000130C476C938CC76B1549854B29A063775B
:1041700094061C803E945C80E39B27FF637094064A
:1041800062AFEFF0AFB63DC93C809D83638777098E
:104190006285EF00B02C3C8003478A12E685A304B9
:1041A000FA128347540083464400759BA207D58FBB
:1041B00093F7F77F938707E093B717008607D98FA8
:1041C0005A852304FA12152915C9188083C74A0095
:1041D000850993F9F90F3A94E3EFF9F892540259EB
:1041E000B24B224C924C33055441B2502254D24A25
:1041F000424BF249624A699D456182800290225495
:1042000092540259D24A424BB24B224C924CB25079
:10421000F249624A01454561828037150020130545
:10422000055AEF00B0233C8003474A00B715002031
:10423000A302FA008347540083464400759BA207FB
:10424000D58F93F7F77F938707E093B7170086071B
:10425000D98F9385855901452302FA002D2EB5B7D4
:104260000111B717002006CE9387475903C797124D
:104270002A886307B70483C757006386B700F240F4
:104280000145056182809307000081CF2AC6B3C52E
:104290000608014536C497000000E70000003248D8
:1042A000A246B717002093858759428536C642C477
:1042B000DD24B717002039CD0545F2400561828025
:1042C00003D747130DEB9307000091CFB7150020DC
:1042D00033C6060893854551014542C49700000046
:1042E000E70000002248B715002042859385C56B82
:1042F00029260545D9B783A5C7122AC63715002038
:1043000033C606081305456C36C4EF00007A324800
:10431000A24655BF3246224593858759092C05454B
:1043200069BF011106CE8DC9854663E2A602984198
:1043300019CF1386F188B347C52098C36306D70009
:10434000F240054505618280EFE03F8675F90290F5
:104350000145F2400561828085472C0001453EC43D
:1043600002C6EFE09F84854719E10290DDB7A3A75D
:10437000F188C5B71C81858BA9E314812A8793D660
:10438000264899C23E85828001112E852EC4FD5596
:104390003AC606CE97C0FF0FE780E0DB3247A24661
:1043A0001C83858B91EF10831356264819EA1083DE
:1043B000854713664600108B29A081473E85828081
:1043C000814736853EC497C0FF0FE78000DDA247D6
:1043D000F2403E8505618280411126C24AC0AAACE6
:1043E0004A85FD5522C406C697C0FF0FE780A0D6B8
:1043F00080801354244809EC4A8597C0FF0FE7805A
:10440000C0D9B240228522449244024941018280AF
:104410009C80858B89E79C80ED9B9C88F1BF014443
:10442000E1BF83475500034745006881A207D98F44
:104430000D89094793F7F77F630AE5028D46630DFF
:10444000D50005476312E502F91593B5150093856C
:10445000F53F63EAF5008280930600046386E50277
:104460000545E3FAF6FE0290014582806388A500C7
:10447000130700040545E368F7FE82801307002058
:104480000545E392E7FE828093060040D1BF2E9659
:1044900063FAC5001548DC81638707019C81BE95DE
:1044A000E3EBC5FE8280B8819377F707B3A7A72017
:1044B0001D83BA97948B9C81BE95E3EEC5FC8280E8
:1044C000797122D42A840881858926D279994AD0A3
:1044D0004ECE4D8D06D6BA8508883687B284130530
:1044E00084003E8685462EC43EC64289C689D52AAA
:1044F000A24599C1B24789EF232224012311340137
:10450000B250225492540259F249054545618280C5
:104510001305C4012AC4EFC08FE52245814799C025
:10452000AA8701455CC808CCC1BF054582809C8133
:1045300001114AC893D71748FD172A8913858500AA
:1045400022CC26CA32C606CEAE8413F407E4312C40
:10455000324609CA01E91304F41F618E01E69C800A
:10456000858B81CB0145F2406244D24442490561CA
:104570008280CC804A85EFE03FFC6DD59C80858BA6
:1045800099C30290C5B7CC804A8581460146EFE0C9
:10459000FFFE71F9FDB7011122CC4AC822AD138587
:1045A000850006CED92201C51C80858B99C701459F
:1045B000F24062444249056182804C804A85EFE0C6
:1045C000BFF775D530844C4013058400C92C1C807E
:1045D000AA86858B01C589CB0290D1BFE9FB4C80AF
:1045E0004A85EFE09FF7E1B750404C804A8536C6D8
:1045F000EFE0DFF875D1324565BF83D6C50079712C
:1046000022D406D69881AE872A8481EA058B21C7F9
:104610000145B2502254456182804ECE26D24AD006
:10462000098BC16905E7938909FC13090004938488
:10463000870026853EC6B52263662501B24798836A
:10464000058B0DC792540259F249D9B7938909E0F5
:1046500013090020E9BFCC813EC6EFE0FFED4DD944
:10466000B2479883058B0DC702905DB7CC83228536
:10467000EFE09FEC61D926852D22B2479883058B08
:104680006365250305CF029092540259F24949B758
:10469000B487CC83014691C2D04322853EC6EFE069
:1046A000FFED79D1B247A887ADB749FFCC8322850A
:1046B000EFE0BFEA92540259F24999BFB48733F749
:1046C000A900CC83B3D6E60A014691C2D043228525
:1046D00036C6EFE0BFEA45D9324592540259F24955
:1046E0000DBFA16763E1C708011122CC2A844845A8
:1046F00026CA4AC84EC652C406CE3A8AB6892E8900
:10470000B28411C5FD5597C0FF0FE780C0A40848CB
:1047100011C5FD5597C0FF0FE780E0A393961901DF
:10472000C5821317FA004844558F2315040023133C
:10473000E40023202401231294002314040009C55B
:1047400097C0FF0FE78060A5084809C597C0FF0F15
:10475000E780A0A4F2406244D2444249B249224ACE
:104760000545056182800145828083568500035797
:10477000A50003554500B3C706083346070863F490
:10478000E600B327F520918FE99F3355F50A828023
:10479000835785000357A5003385E740133515007F
:1047A0008280035685008356A50003574500B34712
:1047B0000608B3C506086374D600B327F7208D8FAB
:1047C000E99F3335F7007D151D8F798D699D8280B6
:1047D000011122CC2A84084926CA06CEAE8411C50E
:1047E000FD5597C0FF0FE7800097835584008356DF
:1047F000A4000357440033C60508B3C7060863EC9A
:10480000D506B306F640E99EA5CE636ED70463E6EF
:10481000E700998FE99FE3FEE7FE035664000C4032
:10482000268546064582D19FBE9559238356A4000E
:104830000357440093871600E99F63F0D7060607E5
:1048400085468147998F08482315F40019C536C657
:1048500097C0FF0FE7806094B246F2406244D244B2
:104860003685056182806364E602198EB3470608C7
:104870002315F40069BFB326C7209D8EE99ED1F6AB
:104880008357A400E99F0607E3CFE7FA65BF3A968E
:10489000B34706082315F4009DBF8546EDB7011107
:1048A00022CC2A8408494AC806CE26CA2E8901C9C4
:1048B000FD5532C097C0FF0FE780E08902460355DF
:1048C00084008355A40003574400B3460508B3C7CA
:1048D00005086361B50EB384F640E99CEDC06362E0
:1048E000970C3356960AB344060863E6E700998F9F
:1048F000E99FE3FEE7FE035864000C40B306F7406F
:1049000046081358180133860703E99EB29563F6EB
:104910009606B38606034A853EC63AC442C233C6EB
:10492000060832C071212247B24712483387E4405B
:10493000BA973308F80202460C403305C9003346E3
:104940000808BD210356A40003574400B30796008E
:10495000E99F9316170063F1C704958F0848231544
:10496000F40009C597C0FF0FE7802083F24062443E
:1049700042492685D24405618280338604034A85F4
:1049800005290356A40003574400B3079600E99F86
:1049900093161700E3E3C7FC93161700E3C0D7FC98
:1049A0006DBF63F6E602BA96B3C706082315F40096
:1049B000BA8405BFB324D7209D8CE99C8DF0835722
:1049C000A40093161700E99FE3CAD7F879B7998E28
:1049D000B3C70608E1BF011122CC2A84484526CA84
:1049E00006CEAE8411C5FD5597B0FF0FE780A076C7
:1049F00083568400835584000356A4000357440063
:104A0000E99EB3C705083345060863F4C500B3271C
:104A1000F720898FE99F504063E4E7029357F6013E
:104A200063400602484419C53EC697B0FF0FE780B1
:104A3000C076B247F2406244D2443E85056182802E
:104A4000B68763EFE602998FE99FE3FEE7FE13174F
:104A5000160013561701D19F0840A68536C63E950D
:104A6000812EB2460357440093871600E99F63FAEC
:104A7000D70206078147998F2314F40085475DB755
:104A80009317160013D61701B307D6020840A68560
:104A900036C63E95312EB246035744008506B3C74D
:104AA00006080607E3CAE7FCF9B763050610AA88FB
:104AB0004845397106DE3283AE8E01CD2EC8FD55D4
:104AC00046C632CA97B0FF0FE780E0685243C24E35
:104AD000B24803DE880083A6480083D7A80003D726
:104AE0004800334E0E08E99F63C306086367FE0C57
:104AF000B307FE40E99F63F9E70CB307F740E99F6E
:104B000033D6670A3343060833086E003348080873
:104B1000330FE340F2876366EE00998FE99FE3FE6F
:104B2000E7FE13961600935616013386D70203A5A7
:104B300008001D8F699F32956368670A3306D302A8
:104B4000F68546CC42CA72C81AC69D243243424EEC
:104B50005248E24883D7480086076364C80163442B
:104B6000F8003308F840239408011A878DA0637F6A
:104B7000E304636EFE0A3306FE40699E9315170038
:104B80001A96330FE3406342B6023388E700334896
:104B90000808330E6840334E0E086364FE00E34B92
:104BA000BEF6B305BE4033CE05083308C301334813
:104BB00008088DB701473A8582803328C721B3079B
:104BC000F840E99FE3EBE7F2014711A025EB03A5CD
:104BD000C80019C53AC697B0FF0FE780005C32479E
:104BE000F2503A8521618280559FF6851AD642D0CF
:104BF00072CC46D47AD23ECE36C676CA3346070841
:104C000032C87D22F247125FB246A258FA97DD9E63
:104C10004246D24E03A5080046C6B385CE0033C631
:104C20000608792232530258624EB24825B79315CE
:104C300017003386F5407296699E99B71395160052
:104C40003306E340935515014D9E3388E700334802
:104C500008083E8E3A83014FB29E6DBD411122C4B9
:104C60002A84484506C611C5FD5597B0FF0FE78059
:104C7000804E084811C5FD5597B0FF0FE780A04D45
:104C80004844231504002314040009C597B0FF0FFE
:104C9000E780A050084809C597B0FF0FE780E04FB4
:104CA000B2402244054541018280411122C42A8438
:104CB000484526C206C6AE8411C5FD5597B0FF0F04
:104CC000E7806049084811C5FD5597B0FF0FE780A0
:104CD0008048835564009397F4004844C605C58115
:104CE000DD8D2313B40009C597B0FF0FE780E04ABC
:104CF000084809C597B0FF0FE780204AB240224418
:104D000092440545410182803D432A876373C30273
:104D10009377F700BDEFADE5937606FF3D8ABA962F
:104D20000CC34CC30CC74CC74107E36BD7FE11E261
:104D30008280B306C3408A06970200009696678079
:104D4000A6002307B700A306B7002306B700A305F4
:104D5000B7002305B700A304B7002304B700A303DB
:104D6000B7002303B700A302B7002302B700A301D3
:104D7000B7002301B700A300B7002300B70082806B
:104D800093F5F50F93968500D58D93960501D58DF6
:104D900061B7939627009702000096968682E78077
:104DA00086FA9680C1171D8F3E96E374C3F8A5B7A7
:104DB000B3C7A5008D8BB308C500B1E71336460015
:104DC00039E2937735002A87C5E713F6C8FFB306A3
:104DD000E6409307000263C3D704AE86BA876371C7
:104DE000C70203A806009107910623AE07FFE3EA76
:104DF000C7FE7D16198E719A91051107B2953297EB
:104E00006366170182802A87E37E15FF9C81050770
:104E10008505A30FF7FEE39BE8FE8280944183A201
:104E2000450083AF850003AFC50083AE050103AE27
:104E3000450103A3850103A8C50114C394511307B9
:104E40004702232057FE232ED7FE2322F7FFB30667
:104E5000E6402324E7FF2326D7FF2328C7FF232A82
:104E600067FE232C07FF93854502E3C9D7FAB5B740
:104E70009481050793773700A30FD7FE8505B1D737
:104E80009481050793773700A30FD7FE8505EDF3CF
:104E90002DBF937735002A879DEFB7867F7F938656
:104EA000F6F7FD5510431107B377D600B697D18FAB
:104EB000D58FE389B7FE8346C7FFB307A74085CAEE
:104EC0008346D7FF95C20345E7FF3335A0003E95E3
:104ED00079158280F9D21C83050793763700FDFB94
:104EE000098F1305F7FF82801385D7FF8280138512
:104EF000C7FF82808A1A00102A1A0010541A001064
:104F0000BA1A00106E1A0010A4190010B61A001078
:104F100092190010080B00108A0F0010E8190010F9
:104F2000A01A0010D81B0010AC040010502500106F
:044F30000401001068
:104F340048656C6C6F2C20776F726C6421000000E4
:104F44000A2A2A2A2050414E4943202A2A2A0A00A2
:104F54000A0000004E6F207370696E6C6F636B7390
:104F64002061726520617661696C61626C65000024
:104F74004E6F2075736572204952517320617265BA
:104F840020617661696C61626C65000048617264DD
:104F94007761726520616C61726D20256420616C9B
:104FA400726561647920636C61696D6564000000F9
:104FB40048617264206173736572740052656C6534
:104FC40061736500626F6F74325F773235713038A8
:104FD40030000000302E3100322E322E300000001E
:104FE4007069636F32000000646F6F722D73656EB9
:104FF40073652D76332D636F646500004D617220F7
:105004003331203230323600555342207374646990
:105014006E202F207374646F757400005261737076
:105024006265727279205069000000005069636FF4
:1050340000000000426F617264204344430000009A
:105044005265736574000000556E68616E646C652A
:10505400642049525120307825780A006570202553
:105064003032582077617320616C726561647920F5
:10507400617661696C61626C6500000043616E2752
:105084007420636F6E74696E75652078666572202E
:105094006F6E20696E616374697665206570202582
:1050A4003032580006005250D3F07542C04F001001
:1050B40006005250E182887FC84F0010060052500B
:1050C4003ABCA911D84F001006005250ABB360533C
:1050D400DC4F001006005250BBFF3CB6E44F0010FA
:1050E40006005250861C0302EC4F0010060052507A
:1050F4005422A29D0050001005005250DE65F46851
:105104004C64001000000000161F00100000000096
:10511400181F00101E1F0010521F00104E1F0010F9
:10512400000000000A00000000000306A6000800BA
:10513400020002009C001400030057494E555342DC
:1051440000000000000000000000800004000100D6
:10515400280044006500760069006300650049008A
:105164006E007400650072006600610063006500F3
:10517400470055004900440000004E007B006200D7
:1051840063003700330039003800630031002D001C
:1051940037003300630064002D00340063006200B4
:1051A40037002D0039003800620038002D00390026
:1051B400310033006100380066006300610037008D
:1051C4006200660036007D0000000000050F21002B
:1051D400011C100500DF60DDD88945C74C9CD265F1
:1051E4009D9E648A9F00000306A600010000000043
:1051F4000600525053B4F4A10C50001000000000FB
:105204002050001030500010501C00203850001066
:105214004450001009025400030100807D080B0073
:105224000202020000090400000102020004052435
:1052340000200105240100010424020605240600BF
:10524400010705810308001009040100020A000097
:105254000007050202400000070582024000000921
:1052640004020000FF00010512011002EF020140D8
:105274008A2E090000010102030100009A2E001089
:10528400542E0010762E0010662E0010842E00106E
:10529400462E0010A22D0010502D0010462D001097
:1052A400C6300010A83000102A2E0010EA3000107A
:1052B4002A2E00108A3000106A3000102A2E0010A6
:1052C40052300010123000102C2E0010A8330010A1
:1052D40096330010883300102C2E00102C2E001052
:1052E4006E330010963300102C2E00102C2E00105C
:1052F4002C2E00102C2E00102C2E00102C2E001002
:105304002C2E0010043200100C0C00200C0C002079
:10531400740C0020940C0020F80C0020100D0020C8
:10532400020C002000000000CA3B0010723C001078
:10533400AA3C0010103D0010FE3D0010183F001064
:1053440000000000000000003A400010A4400010DB
:10535400C4400010FE400010CA1F0010604200103C
:08536400000000000D0A00002A
:10536C00A8500010B4500010C0500010CC500010C9
:10537C00D8500010E4500010F0500010FC500010F9
:04538C00F4510010C8
:105390001C412A87F3760430139637003316C02851
:1053A000F19B2FA5C744718D6DFD0F00300383075E
:1053B000470063CE070091C19CC101451C430F000B
:1053C000300323800700A18A73A006308280B707CC
:1053D00000D09C4305452302F7001C430F00300317
:1053E00023800700A18A73A006308280B70700D00F
:1053F0009C43011122CC26CA4AC84EC606CEBE84A2
:105400002AACB28929A80F0030032300070073A03B
:1054100007306EAD971000F0E780403931E51C4051
:105420007377043093963700B316D028F19B2FA6DC
:10543000D744758E6DFE0F003003830644009377CA
:1054400087001840E3D106FC230294000F003003CC
:105450002300070073A00730F2406244D24442495F
:10546000B249054505618280F2406244D244424916
:10547000B2490145056182801C41737704309396DF
:105480003700B316D028F19B2FA8D7443378D80023
:10549000E31C08FE0F003003830645009377870066
:1054A000184163C206020F0030032300070073A0F7
:1054B0000730B70700D00387070081476314D70080
:1054C0003E85828025B7B70600D094422302D500DE
:1054D0000F0030032300070073A0073085473E8587
:1054E0008280411122C426C206C6A2AC971000F0E9
:1054F000E780C0401307803E3306E402B707008010
:10550000FD173334E40232953336C5002E942296CB
:1055100063F4C7003E867D552244B240AA852685A5
:1055200092444101E1B51C417377043093963700F2
:10553000B316D028F19B2FA6D744758E6DFE0F00B1
:105540003003FD572302F5001C410F003003238078
:105550000700218B73200730332010008280411117
:1055600006C6B707105023A4070023A6070023A8E8
:10557000070023AA070023AC070023AE070023A0DF
:10558000070223A2070223A4070223A6070223A8D7
:10559000070223AA070223AC070223AE070223A0B7
:1055A000070423A2070423A4070423A6070423A8AF
:1055B000070423AA070423AC070423AE070423A08F
:1055C000070623A2070623A4070623A6070623A887
:1055D000070623AA070623AC07063725002023AEBB
:1055E0000706130505871306003C8145975000F018
:1055F000E780C0AAB240B707105093870718A3A34B
:10560000F186410182807971B70711505AC803AB06
:10561000870506D6630A0B0652CC372A002022D40F
:1056200026D256CA4AD04ECE01448544130A0A8374
:10563000B73A115009A80504619C930704FE86043B
:1056400095CF638D0902B3779B008549EDD7B3F7FA
:1056500089401379E40F3E991609529923AC9A04B4
:105660004A85EF00500B0DE50504619C337B9B40A0
:10567000930704FEB33960018604E1F72254925483
:105680000259F249624AD24AB250424B4561828085
:105690008346290003576901930700704800CE85AF
:1056A000A30401002304D1003AC62312F100EF0045
:1056B000100C4A85EF00807945BF7971B70711500A
:1056C00026D283A4870922D43704020006D6658C2B
:1056D000C14765C837070B40B7270020105793878D
:1056E000078383C6B703A3A5C1860947014463871F
:1056F000E63083C6B70709476386E61E83C6B70B45
:105700000947638BE61E83C6B70F0947638AE62005
:1057100083C6B7130947638DE62483C6B7170947C5
:105720006384E62283C6B71B09476383E62883C6E2
:10573000B71F0947638CE61C83C6B72309476383F9
:10574000E62883C6B7270947638AE62083C6B72BB6
:105750000947638BE62883C6B72F0947638CE61C8D
:1057600083C6B73309476388E62683C6B737094738
:10577000638AE62083C6B73B0947638DE62C83C660
:10578000B73F09476388E62A11E883C7318699E75E
:10579000B73711503707020023A8E708B7071150A1
:1057A000BC4713070030854593F7F77F48083ECC88
:1057B000231AE100EF00A07BB7070200C1073704FE
:1057C000020013F70401631B07109397F40063D6DC
:1057D000070437250020130505838347A50113140B
:1057E000042909470548ADE3A30105011305050296
:1057F0006318070593070060231AF100B7071050DC
:105800009443BA85480836CCDC433ECEEF00207680
:10581000B737115037070200B8CB9397340163CAEA
:1058200007089397140163C807069397040163C59B
:105830000704631D943CB250225492544561828007
:105840008347A5010547CDD3B7271150B8D3B70675
:105850001150FC52F98FE39EE7FE0D6681453AC672
:105860002AC4ED2B2245DD233247B737115022459C
:10587000F8D3B8D305488DBF930700508545480835
:10588000231AF100ED25B73711501317B028131460
:10589000F428B8CB79BF9307004085454808231A00
:1058A000F100F125B737115041471314E428B8CB64
:1058B000ADBFB707115023A0070055319307001063
:1058C00048088545231AF10002CC5525B7371150F9
:1058D000370708001314C428B8CBA1B73EC425333A
:1058E0002244E5B503C7A707E30A07E083C6C70755
:1058F0006395062C3A8419B503C7A70BE30507E0A7
:1059000083C6C70B639C06283A84F5BB03C7A71F51
:10591000E30407E283C6C71F639406243A8429BDC3
:1059200003C7A70FE30607DE83C6C70F639B0620E6
:105930003A84F9BB03C7A72FE30407E283C6C72F46
:105940006392061E3A8429BD03C7A717E30C07DC40
:1059500083C6C7176399061A3A84E9B303C7A72712
:10596000E30607DE83C6C727639006183A84F9BBAF
:1059700003C7A713E30307DA83C6C71363970614A5
:105980003A8461BB03C7A737E30607DE83C6C73780
:105990006394062403C6B73B89466305D60803C74C
:1059A000B73FE31DD7DE03C7A73FE30907DE79A0B2
:1059B00003C7A71BE30D07D683C6C71B6398060E54
:1059C0003A84B5B303C7A723E30D07D683C6C7231D
:1059D000DDEE3A84BDB303C7A733E30807D883C617
:1059E000C733D9E63A8451B303C7A72BE30507D6DB
:1059F00083C6C72B639506183A84B1BB03C4A703BB
:105A0000E30904CE03C7C703E30507CE372500200B
:105A100013050585238E07025129B7270020938798
:105A20000783C1B983C6A73B95EA83C6B73FE3970F
:105A3000C6D63A8403C7A73FE30807D403C7C73FC6
:105A4000E30E07D437250020130505C1238E073E3A
:105A5000B129A9B303C7A73BE30307D203C7C73BD9
:105A6000631A071883C6B73F0947E399E6D225BFF3
:105A700037250020130505B53AC4238E07323D2192
:105A80002247B7270020938707833A84F9B937253F
:105A90000020130505A53AC4238E072201292247B9
:105AA000B7270020938707833A8461B93725002000
:105AB0001305059D3AC4238E071ACD2E2247B7271A
:105AC0000020938707833A849DB137250020130572
