:020000041000EA
:10000000F2EB88710C70001030700010A800001026
:1000100090A31AE7D3DEFFFF420101114403000061
:100020003600001000200820FF040000849E00001D
:10003000793512AB79A8974100109381B11E172131
:100040000810130121FC173500101305B5C37310F8
:100050005530732540F135ED1707000013070705EC
:100060000C4391C55043144731071D28D5BF973520
:1000700000109385A5DF174600101306A6A421A043
:1000800023A005009105E39DC5FEEF3040425928AD
:10009000EF3080410290FDBF884108C291051106F2
:1000A000E36CD6FE8280010030700010000000205A
:1000B000682E0020989E00100000082000000820F4
:1000C000989E00100010082000100820000000007A
:1000D000828021651305C5DF028552B837340020C0
:1000E000834784FE99EF9307000089CB3775001092
:1000F0001305859397000000E7000000854723045F
:10010000F4FE52BE9307000089CFB7350020377543
:1001100000109385C5FE1305859317030000670043
:1001200000008280411106C622C426C23744002046
:10013000EF304061B5463146130544A2B70507408C
:10014000ED221305800CEF108024130544A2F9451D
:100150002D241305800CEF108023130544A2854540
:10016000B77400103124130444A29384849305656A
:1001700013058538EF10A0212285F5221305800C88
:10018000EF10E020228559227DD1AA852685EF3007
:100190006076F1BF45C537370020130707C1144308
:1001A000032347009358860093D7860013D806018F
:1001B0001378F80FE19FC2971378F30FC297C69791
:1001C0001378F60F03578700C297AE973738002091
:1001D0004111B307F0400348C8E51AC42316E100F3
:1001E00036C213D78740A305E100A303B10023055E
:1001F000C1002306F100A3041101184163000802A5
:1002000054001306E1001C4F93F70702EDFF9C8298
:1002100085061CC3E399C6FE41018280BD57A30534
:10022000F100540070001C4F93F70702EDFF9C8211
:1002300085061CC3E399C6FE41018280828049C1C4
:10024000797106D62AC6B937B24754081306E101B8
:1002500098431C4FC18BF5FF1C438506A38FF6FE08
:10026000E399C6FEB7370020938707C1988383467A
:1002700041016386E6000145B250456182808346B4
:100280006101B883E399E6FE83C797000347D10174
:10029000E313F7FE83477101130770046385E704D6
:1002A0006362F70213072004638CE704130730042A
:1002B0006396E7000347A101A387E18005456DBF71
:1002C000014582801307C004E39AE7FE8347A1013A
:1002D00083469101A207D58F93D78769C183A396DF
:1002E000F180054551BF8347A10183469101A207D3
:1002F000D58F93D78769C183A395F1800545ADBF9D
:100300000347A10105452388E180BDB711CD411107
:1003100001469305C00406C6A39601800D37B2407E
:1003200003D5D1804101828082800DCD85CD4111E0
:1003300006C622C426C2AA870CC1B6842E85F946F9
:1003400089652382D700938505583284EF10C03326
:10035000228589451D282244B2402685924489453C
:10036000410125A0828001C50146854525B58280D1
:1003700001C52E868D4539BD828019C503464500CD
:100380003356B60A994539B58280B787034091073D
:10039000B347F52098438566BE9613470704137745
:1003A000070C3786024098C23365C5200D67BA979F
:1003B0004CC11307001098C3828039713773001045
:1003C00022CC2A841305C39406CE2ED232D436D63C
:1003D0003AD83EDA42DC46DEEF30204101CC4C1008
:1003E00022852EC6EF302007377500101305C595FE
:1003F000EF30A03F0545EF30E00AF3760430B73721
:1004000000209387B71A139737003317E028F19B22
:100410002FA8E7443378E800E31C08FE0F00300300
:1004200093D735003E95188193F77500B317F028E0
:100430003378F700631008025D8F18890F003003CE
:10044000B73700209387071AA3850700A18A73A0F6
:10045000063082804111328506C68537737E0430AE
:10046000B73700209387B71A13983700331800293D
:10047000F19BAFA80745B3F80801E39C08FE0F0005
:10048000300363F6C60015A8050663E8C602935755
:100490003600AA9783C8070013787600331800291E
:1004A00033F30801E31203FEB3E808019356F601A3
:1004B000328523801701F58D11A07D550F00300383
:1004C000B73700209387071AA3850700137E8E0095
:1004D00073200E3091E1828041113A8506C6F13DCC
:1004E000373700200345D7E5DD4693071500E19F28
:1004F00063F3F600C147A30EF7E48280AA8537773D
:1005000000101307079613853181FD466146B9B780
:10051000B73600209386061A8147130600020F00A3
:1005200030033387F600230007008507E399C7FEF1
:10053000828081463D481D459305400393F7360070
:100540008A073317F80013D626004207518F7330FD
:1005500037BEB317F500C207D18F73A037BE85062B
:10056000E39EB6FC73600430828093575500860783
:100570003315A028C176E98E138717004205558FE1
:100580005D8D91C9733025BE733027BE732005BEC3
:10059000732007BE8280733005BE733007BE828031
:1005A00093574500F3A707BEC1833D8933D5A748BC
:1005B00082809377F500B317F0281181C207C98FA5
:1005C00073A027BE8280F3275030F19B3345F5207E
:1005D0000325050DB73700209387C7C11D8D13353F
:1005E00005038280011106CE73770430B7370020EF
:1005F0009387971A93963700B316D028F19B2FA6AE
:10060000D744758E6DFE0F003003F327503013056D
:100610004503F19BB347F52094436380D502B73778
:100620000020938747E2638AF6002EC62AC43AC2A6
:10063000EF10E043B24522451247F3275030F19BBB
:100640003345F5200CC10F0030030F003003B737DE
:1006500000209387071AA3840700218B732007309B
:10066000F24005618280797106D673780430B7371D
:1006700000209387971A139737003317E028F19BD0
:10068000AFA6E744F98EEDFE0F00300303837181BE
:100690006342032AB7380020B32763209388C8C178
:1006A00033CE17218346AE0093922700931E13008A
:1006B000A38BD180F327503013054503F19BB3473B
:1006C000F52003AF07009307F00233071F4163E8EB
:1006D000E71C8347BF00FA8F636FF60EA305CE00B9
:1006E000373600201306C6C43306C6412322BE0097
:1006F000B706100093159600B7FE0F00F58DB37E78
:10070000D60193878200B386F800B3E7D501B7B569
:10071000AAAA9385B5AA09874D9F135346017E0364
:100720001376E67FB306DF40B3E7670052065D8EBF
:1007300005639397160093D8360093957600136659
:10074000F62E93F84800B3F76700931EB0282320D5
:10075000CE002305EE00B3E7170133F7D5019395DB
:10076000160003264F00D98F93F5056013D7260096
:10077000CD8F1377071093981600D98F93D5160055
:1007800093F8080813171600B3E7170193F505044B
:100790008A0693F6860333776700CD8F3297D58F1D
:1007A000E97685061377078052061317B748D58F69
:1007B0001366760E2314FE001367770B1316F628C4
:1007C0002320EF002322CF00728F2DAA83C6B7000B
:1007D000637FD616BE8F0387AF00B327E720B3C76A
:1007E0001721E35507FE939315008567B3F3F300D4
:1007F000AE9393F30380D2059393B34893E5750EBC
:10080000B16293E3730B9395F528938222E4938668
:100810008F00B306DE409A9EB3CE1E21939716003A
:100820008568B3F7170193D8360093F848002385FD
:100830006F00B3E717011313B02893987600B3F84D
:10084000680013931600B3E717011373036093D87E
:100850002600B3E7670093F8081013931600B3E778
:1008600017011373030893D81600B3E7670093F8D2
:1008700008048A0693F68603B3E71701D58FE97655
:100880008506D58F2394FF0023A07E0023A2BE00FF
:1008900023945E002385EE00A385CE00A5A0B73784
:1008A0000020938747E26310FF1AB7370020938731
:1008B000C7C4B387C74113979700B706100037FF27
:1008C0000F0033FFE701758F93D647013367E701C8
:1008D000FE0693F7E77F558FD207D98F769371770E
:1008E0003343132193E7F72E130727E4FD56232202
:1008F000B300A305C300728F2320F3002314E30089
:100900002305D300F3275030F19B3345F5202320F6
:10091000E5010F0030030F003003B7370020938745
:10092000071AA38407001378880073200830B25098
:100930004561828032C82EC62AC442C2EF102013FD
:10094000038371814246B24522451248A1B383D345
:100950008F0093878200C6979392330093868F000F
:1009600093F20202B387F640969793D2130022D4F3
:1009700013F40204A2971394130013740408A297AB
:10098000139423004AD093F202302289969713D40D
:10099000230093D27300937309409E9793F2020150
:1009A0009373E400B3E272009313B0289697B37286
:1009B0007400B38757401394770026D293921700A0
:1009C000B3747400056493D33700B3F2820093F3D9
:1009D0004300B3E2720093931700B3E2920093F3E3
:1009E000036093D42700B3E2720093F4041093934E
:1009F0001700B3E2920093F30308B3E272009393FB
:100A0000150093D41700B3F38300AE9313F40404DA
:100A10008A07B3E2820093F78703697493F3038034
:100A2000D205B3E7F2009393B3489302140093E521
:100A3000750E225492540259B3E2570093E3730B9C
:100A40009395F528F9B332CE2ECC76CA2AC842C681
:100A500072C41AC2EF10A001B73700207246E245F7
:100A6000D24E42453248224E12439388C7C135BD0B
:100A7000F32750BE1397070181456349070091830F
:100A800093F7F71F938747039395270073760430F6
:100A9000B73700209387971A139737003317E0284A
:100AA000F19BAFA6E744F98EEDFE0F003003373718
:100AB00000201307C7C1B307E540B7B6AAAA9386BB
:100AC000B6AA8987D59FE59FF3265030F19AAE9656
:100AD00094426384A6048306A700638AF60483060F
:100AE00067016384F606830627026382F60683069F
:100AF000E7026380F60683C67181A38BF18023052C
:100B0000D5000F003003B73700209387071AA3845E
:100B10000700218A73200630828073275030B73651
:100B20000020719B2E97938646E214C3E9B7814655
:100B3000B3A6D620B3C6E62071777D58130727E405
:100B4000238506012394E6007DB78546D5B78946FF
:100B5000C5B78D46F1BFAA8537770010411113073D
:100B6000C797138581819546014606C6C5386346F9
:100B70000500930730033385A740B24041018280CE
:100B8000B73700209387071AAE971CC182800111E6
:100B900022CC26CA37340020B734002006CE1304F6
:100BA00004E6938484E6637694024AC84EC6130929
:100BB000F00FFD591C409DC32532AA852285C937F7
:100BC000231224010F0030032104E36594FE4249FF
:100BD000B249F2406244D244056182801132AA8552
:100BE0002285793F230234010F0030032104E3639F
:100BF00094FCF1BF411106C622C42A84EFF05F8E37
:100C0000AA852285B53FFD572302F4000F0030036B
:100C1000B240224441018280411122C42A84054508
:100C200006C6EFF0BF8DB73700209387071AAA9743
:100C30001CC00F003003B240224441018280B7370C
:100C400000209387071AAE971CC10F0030038280E3
:100C500083A7B18173770430139637003316C02809
:100C6000F19BAFA5C744F18DEDFD0F00300383A7C5
:100C7000B1810F003003238007009377870073A0B2
:100C8000073033201000014581458280397106DE2E
:100C900022DC26DA4AD84ED652D456D25AD05ECE6C
:100CA00062CC66CA6AC8F32750BE13970701634E29
:100CB000073013D947009377C91F13793900B31947
:100CC0002029B70B0B40639E073237470020B3C77C
:100CD00027211307079FB3C7E72083AA07008D6763
:100CE00093874704DE97371A001023A03701130AB1
:100CF000CAC87D54FD54039B8A0023AE3B0363574F
:100D00000B0883D74A00ED9F63DC071483C76A0092
:100D10006394071E039B8A0063470B0403A74A01E1
:100D2000332B6B21FD57336BEB20032C8B00032BF4
:100D3000CB006309FC28B346792103A78B029C4AA8
:100D40003306EC40998F6360F60483A70B02B3D798
:100D5000274995CB5E85EF00900863C66501E31CCB
:100D6000BBF8E37A85F933201000F2506254D25474
:100D70004259B259225A925A025BF24B624CD24CFF
:100D8000424D2161828023A88601E9B783A74A01E9
:100D9000332C6B215E85336CFC20832CCC00032D1F
:100DA0008C00EF00D003E3CE95F56389BC1A63CBCA
:100DB0000C1A83270C0183254C01638B472303976F
:100DC0008A0003552C004207598D82972E87AA87E7
:100DD000B3E6E70063880618635F071EB306FD40AD
:100DE000333DDD00B387EC40B387A74103170C0008
:100DF0002324DC002326FC00E34507F003A84A0176
:100E00003325E72013161700336505214C45832849
:100E10008500E3C8B7EE6394F500E3E416EF23948E
:100E2000EA0013858A0031A0832886004C461316F9
:100E300017003A9663CDB7006389F51C3365062128
:100E400058853326E72033660621E35F07FC23102D
:100E5000EC002310650183D74A00ED9FE3C807EA41
:100E600083A70A017377043093963700B316D0280E
:100E7000F19B2FA6D744758E6DFE0F00300383D8EB
:100E80004A00FD572392FA009398586083A70A01FD
:100E90000F003003238007009377870073A007308B
:100EA000E3C608E603A54A0103978A0033A8182180
:100EB0003368A82093858A006344070203238800CF
:100EC0000326C80039A06383C60ED887BE85634950
:100ED0000700B327E720B3E7A720D447E355D6FEA2
:100EE00023901501831808002310E800E3DE08FAB8
:100EF00083C76A00E38007E223830A00039B8A001A
:100F0000FD555A87E301BBE603A54A01B327E72055
:100F10003A86B3E7A720B487D88713888A00ED9E66
:100F200063CF06003E88E309B7DEB327E720B3E7C7
:100F3000A720B4873A86D887ED9EE3D506FE80C702
:100F4000C4C7E302CBFE2310E80083D68A00328BAD
:100F5000948F2394CA00E31AB7FC7DBBE363A5DB3F
:100F6000E3D90CE403570C0083A70A012394EA0099
:100F70007377043093963700B316D028F19B2FA6D1
:100F8000D744758E6DFE0F00300383D62A0083A7E9
:100F90000A012310DC0023916A010F003003238033
:100FA00007009377870073A00730A1BB9447E37EC7
:100FB000D3F023901501831808002310E800E3D52F
:100FC00008EE3DB7E3198BD771B38549CE87014948
:100FD000B78B0B40DDB95E853AC63EC40925A247F2
:100FE0003247B306F500B3B7A600BA95AE97FDBB7E
:100FF0009C492E852EC4829735D5A2459C41D84167
:10100000C1BB8547B78B0B40C9B1E3F916E381B586
:10101000B7370020938787C6984B09C71385B181DE
:10102000A945B9BE41118D4537050B4006C622C4FE
:10103000492B37340020930784C637080B4023A67A
:101040000701EFF0EFC9930784C6AA850D45888B89
:10105000370700D003230700B7360020D84B93860C
:10106000061A37061100AE967D16BD4894CBA380B4
:10107000670090C723911701FD5509439148154614
:1010800099462392B70023146704231C17072318DB
:10109000C7082314D70A9D42A146A54F294FAD4E3C
:1010A000314E3543B9480546231CD70C2310A706FB
:1010B0002310570C2318F70F2314E7112310D7130D
:1010C000231CC71323186714231417170C8F231816
:1010D000C702231C070037080B40B7150010232058
:1010E000D802374700209385C5C8232EF79EEFF01E
:1010F0006FCF85450D45EFF04FC72244B240B7276B
:101100000B40A146B4C31385B181A94541018DBCF3
:1011100037350020130585C68280797106D62A8866
:101120002E8395E73ACE36CC32CA2EC82AC6C121C4
:101130004243524632483305A3403335A300B3053A
:10114000B640898DE2467247014563C3050C83278B
:101150000801F3750430139537003315A028F19B6F
:10116000AFA8A744B3F8A800E39C08FE0F00300323
:101170008318280003250801A18963CE0808032EDF
:101180004801B3A71821B3E7C72103DE07002311E5
:10119000C8010F0030032300050073A00530AC87A1
:1011A000054E13950801F295C605C581B3F5C50B2B
:1011B000D8CB94CB23A46700D0C7AC8F4D8D032729
:1011C0000801F3760430131637003316C028719BDC
:1011D000AF25C744F18DEDFD0F00300303564800E5
:1011E00003270801908F231218010F0030032300FA
:1011F000070093F7860073A0073003470800832792
:10120000C8008966938646043317E028B69798C3CA
:10121000B250456182800F0030032300050073A0A7
:101220000530B2507D5545618280B283AA8710494E
:101230002E83F3750430131536003315A028719AE8
:101240002F28A6443378A800E31C08FE0F003003C3
:101250008398270013F685008C4B63CC0808C84B95
:1012600033A818213368A82003550800A88F0F0061
:10127000300323800500732006300356280085457F
:10128000139508012E96460645823376B60A232A20
:10129000E8002328D800232468002326780023119F
:1012A000C800518D984BF37604301316370033166F
:1012B000C028719BAF25C744F18DEDFD0F003003B1
:1012C00003D64700984B2310C800239217010F0044
:1012D00030032300070013F786007320073098833C
:1012E000DC478966938646043317E028B69798C38F
:1012F00082800F00300323800500732006307D5567
:1013000082800357A50093D7054163D6E70454496B
:10131000B3A7F7201849B3E7D720F37604301316A4
:1013200037003316C028719B2F28C7443378C80074
:10133000E31C08FE0F003003B087E99D13F7860019
:10134000B3460608630BB6001C490F003003238028
:10135000070073200730014582806176D18EB48FFB
:1013600085472303F50014490F003003238006004E
:101370007320073014815845096613064604B316D6
:10138000D02832973E8514C3828048818280011123
:1013900022CC26CA4EC6AA8406CE4AC8892C130778
:1013A000803E3384E402B7070080FD17B3B4E40243
:1013B000B309A40033B48900AE94269463F4870083
:1013C0003E84FD599384A9FF33B934019307F4FF98
:1013D0003E996369240363058902112C3385A44077
:1013E000B305B940B3B7A4009D8D6349B002D5C51C
:1013F000E2AD6244F240D2444249B2490561A5A43B
:10140000E3FD99FCED22814401493385A440B305F5
:10141000B940B3B7A4009D8DE35BB0FCC92A338506
:10142000A44033B5A400B305B940898D63C105025A
:10143000B716001037350020938606C5130585C6FC
:101440000147A6854A86D533FD57E303F5FAB7066B
:101450000B40DC5263E727019856E31BF9F8E37968
:1014600097F883A7B1817377043093953700B3154C
:10147000B028F19B2FA5B7446D8D6DFD0F00300393
:1014800083A7B1810F003003238007009377870083
:1014900073A00730332000006DBF39D941B7F3275F
:1014A00050BE1397070163580706B7370020011194
:1014B000938787C6D84722CC26CA06CE9C83A2AC87
:1014C0003A853EC63AC4212A2247B247B305B44002
:1014D000B3C7E7209C4B3387A440B3B6E400958D97
:1014E000898F63CD0504A9C933200000B7060B40DE
:1014F000D8528147636B87009C56018F3337E000D9
:10150000B3B7970093B71700D98FF2406244D24423
:101510003E8505618280B7060B40D8528147636BD8
:10152000B7009C560D8F3337E000B3B7A70093B7D1
:101530001700D98F3E858280E378F7FA4D283385EE
:10154000A44033B5A400B305B440898D63C7050436
:10155000B7160010B7370020938606C50147A68549
:101560002286138587C6D1316359A00237070B4005
:101570005C5363EB87021857639487006366970296
:10158000B7370020AA85138587C6A53BB7060B4051
:10159000D8528147E36B87F685B737070B405C531A
:1015A00063F78700814795B733200000D1BF1857F4
:1015B000818FB337F0003337970013371700D98F77
:1015C000A9B7B787F4BFAA9793B717001385F1811E
:1015D000377600103E95130686996FE01FE24C5156
:1015E000AA8788572E87CC53E31DB7FE8280B707A2
:1015F0000B40CC5388572E87CC53E39DE5FE828069
:1016000037070B405C5303288702BE865C53E39C7C
:10161000D7FE33060501BE953335A6002E95636CC3
:10162000F5026388A702B7070B40DC5363F7A700F6
:1016300037070B405C53E3EFA7FE639BA700370718
:101640000B4021A054536395F6001457E3ECC6FEFB
:101650008280E37A06FDB7070B40DC537D552A866E
:10166000E398A7FCE9BF37070B405C53E3EFB7FEF5
:10167000639BF500B7070B4021A0D8536395E500A5
:101680009857E36CA7FE8280011122CC2A84194569
:1016900026CA06CEAE84ED2A49CDB7870740370764
:1016A0000004630CF40EB727024098C3B70602404B
:1016B000B737024098C3A1069C42B377F740EDFFCD
:1016C000B787F8BFA2971387318293B71700B3A7E4
:1016D000E720194513070010988F5D2A93173500EE
:1016E000B3D79702850713D7770029EB930400043B
:1016F000854654D018D4185893771700ADE3856702
:101700009387C702A297545423A0070018D81945FD
:101710003EC4BD2A0A05335595025854A247130604
:101720001030134707071377E70798C38D4610D883
:1017300034C4F2406244D244056182804166791625
:10174000C166637FE604FD16014754D018D41858CB
:10175000B7044000938404FC93771700CDD38D67C2
:1017600093870703A2979306103094C35C501454D8
:1017700019459A07B6973AC63EC4192AB7862B8FE1
:10178000938656B73335D502A2478145AA072D81E6
:1017900033D5A702B53532479DB73707000821B7C3
:1017A00085839316670093F7F703B384F600BA8630
:1017B0003E8781B7B70701403327A5203347F7207D
:1017C00003284700C1676373F8005CC39387F5FF84
:1017D0009308C5FF81E793B72800B5E737380020A5
:1017E0001308085AB347052103A307008D67BA976A
:1017F000131EB02823A0C7010A056319030203239F
:10180000070016068567334666001376060EBA97FC
:1018100090C30546637016078967BA971316B028F8
:1018200090C34295C16714C15CC38280832748017D
:10183000B3D767028507B3A7F72001009387E7FFB7
:10184000E3DE07FE6DBF8D67BA970D4823A0070141
:101850001C47858BF5DF032807001606856733468E
:1018600006011376060EBA97373800200A0590C392
:101870001308085A832807003316B028B3C8150187
:1018800093F8380023A017011C47F18FF5DF69B7E3
:10189000B73700209387075A3345F52008418280E7
:1018A000B727B700938707B0B3D7B70283280500DF
:1018B000C206320733E8E6003356F60263C4080472
:1018C000B787054011676300F506B727024098C344
:1018D000B7060240B737024098C3A1069C42B377CF
:1018E000F740EDFF0D670CC1110710C52A9793074C
:1018F00010021CC31C41E3DF07FE23260501A1479C
:101900001CC382801C4193F7F703E39BB7FA1C4585
:10191000D207D183E396C7FA5C4537770700F98F82
:10192000E39007FB828021674DB7B7B70D403707BB
:10193000004098C329C5B7C607B0B747F84F3787E7
:101940000D409386360D9387D7F254CFA98F1CD3C1
:101950004CD308D7B7B60D40B70700403707000291
:101960009CC24D17B7A7014098C7B70700079CC294
:1019700001EEB7A70D403707008098C38280B78774
:101980000D4023AE0700F9B73346C6203346C620C4
:101990003346C6200E06B7070001637EF600B28705
:1019A000A3A3F182B7870D40D0C337070040B7A784
:1019B0000D4098C38280FD173E86DDB7B787104083
:1019C0003325A5203345F5204CC185471CC18280B5
:1019D000A1679387A7DF9C8785458287411122C431
:1019E00026C206C6A2AC634505001DC213640403EB
:1019F000A1679387A7DF9C8711658545130525257A
:101A00008297AA87A6862286A94513052010829769
:101A100013640402F1BFB7170E409387878298437F
:101A20007DDF0F0030038280B7170E4037170E405E
:101A30009387C7801307C7820F00300323A00700D6
:101A40009107E39BE7FE82808567938707AA378724
:101A500004401CC39307A0115CC7B7B6FA00B7A730
:101A6000044094C35C43E3DF07FE828082803775C5
:101A7000001041111305C59B06C6EFE01F944111EC
:101A800022C426C237740010B774001006C61304AF
:101A9000848F93840493637794001C40110482978D
:101AA000E36D94FEB2402244924441018280B747E4
:101AB000EFEF9387F7B7B72602403707F4039CC2CE
:101AC0005917B7370240B706024098C3A1069C4297
:101AD000B377F740EDFF8280B7071150F847A16751
:101AE0006303F7008280B727115037070400F8C757
:101AF0008280370700207D17B7370240B7060240C3
:101B000098C3A1069C42B377F740EDFF828015652C
:101B100041111305352506C6653DB240AA8711451A
:101B200041018287156541111305352506C64D35DE
:101B3000B240AA870545410182876FE07F9D411130
:101B400022C406C626C24AC0370401402322040824
:101B5000E53DB73701400547D8DF7C40E39FE7FE0E
:101B60000D47B737014098DB0544370701401C5F3C
:101B7000E39F87FE37366859A285130606F00947AA
:101B8000954637050540293B154737968647BA865F
:101B9000A285130606C0378505401933B726B7005E
:101BA000938606B00146894511452931B7D6F0081C
:101BB000A2859386061801461545ED3EB776DC02F0
:101BC000938606C0014681452145ED36B776DC0295
:101BD000938606C0014681452545E93EB7D6F00803
:101BE00093860618014681451945E936B7D6F008AF
:101BF00093860618014681451D456D3E11454939BC
:101C0000B7E71B43938737E8B334F502014419491A
:101C1000C98066AC05045D33E31D24FFB240224455
:101C20009244024941018280828079714AD04ECE2D
:101C300052CC56CA5AC862C466C26AC0C68C06D69E
:101C400022D426D293F8380032ADB289B68A3A8BC4
:101C50003E8D428C63850806D1C75EC6B2843304CC
:101C6000AB01B38B84000345F4FF33868B40D686EB
:101C7000D2857D140299E3188BFEB24BEA9493FC53
:101C80002C0063800C02B389344163FC89012686F1
:101C9000D686D28513050002850985040299E3E8FA
:101CA00089FFB25022540259F249624AD24A424B49
:101CB000224C924C024D268592544561828063F5F8
:101CC0000703B304F840B29432842286D686050412
:101CD000D285130500020299E31994FEE3030DFC7B
:101CE0005EC6B5BFB28461BFB284CDBFA24E3E8393
:101CF000C28F93F72E00024E1248E9E7930703FEC6
:101D0000B337F000333FC30133FFE70193F21E0006
:101D1000630E080E638C020E63960F0093F3CE00E1
:101D2000638303007D18630F0F06130F0003050381
:101D3000B3076700A38FE7FF930703FEB337F000F5
:101D40006373C301EDF7639F020493F70E01B9C3F8
:101D500093F70E4089E763086E0C6306030DC147D5
:101D60006388F80EF9186393080E930703FEF9CF02
:101D7000930713003A939308200623001301930856
:101D80000002638D170113831700BA9793080003AD
:101D90002380170193070002631CF30493070002DA
:101DA000F68861B56370030391CF130F000311A090
:101DB00091CB0503B3076700A38FE7FF930703FEEB
:101DC000E36803FF93F70E01F1D793F70E40C1FBD1
:101DD000E31303F8C1476385F80E89476391F80C54
:101DE00093072006930800031C8BA30017010943E7
:101DF00063910F0293F74E00BDCBB3086700130E3B
:101E0000B002930713002380C80159BFE31F0FF0EE
:101E100055BFB3086700130ED0022380C801930793
:101E20001300F68819B59307F3FFC9C3138E08FF93
:101E3000631E0E069308E3FF13FE0E02BA986319A1
:101E40000E08130E80072380C80181B79A8705BF4B
:101E500093F70E028DCB93070002E301F3F493078F
:101E600013003A93930880052300130109BF93F8E8
:101E70008E009A87E38608F23A939308000285075A
:101E80002300130131BF93070002E309F3F0930726
:101E900013003A939308800723001301CDB59307ED
:101EA00000031C8B0543E3870FF4A5B7414E6386FF
:101EB000C803094EE39BC8ED9A883E83C6875DBD83
:101EC00093D75E48B307F040819B9387870719BF7C
:101ED000130E80052380C8014DBD93F80E02638662
:101EE00008009A883E83C687ADBF9A883E83C6871E
:101EF0004DB711E182806F10100501C59C41CC41A6
:101F0000828782801971CAD8D2D4D6D2DECE32ADC1
:101F1000B28BB68A3A85BE853A86BE86A2DCA6DA40
:101F2000CED6DAD0E2CC86DE0A4BBA843E84428C2E
:101F3000C68997100010E78040A2631E0548B77756
:101F4000001003A607F883A647F8E2AC970000103C
:101F5000E78060FB63470522B777001003A687F888
:101F600083A6C7F8E2AC97000010E78060EE6340FC
:101F7000A018B777001003A607F783A647F7E2ACCF
:101F800097000010E780C0EC634FA012B7770010F5
:101F900003A607F983A647F9E2AC97000010E78093
:101FA00080F663420512E2AC01468146EEC6E6CAFF
:101FB000EAC897000010E78000F5814D6344051AD8
:101FC00093770B40639E071437770010832687F7BB
:101FD0000327C7F7194CB68C3A8D1810E2AC3ACEED
:101FE0003ECC97100010E780809A2ACA9710001004
:101FF000E780C0A52A86AE86E2AC97000010E78095
:10200000A03C6686EA8697000010E78020FB2EC67B
:102010002AC497100010E780809D2AC897100010EE
:10202000E780C0A72A86AE862245B24597000010F9
:10203000E7808039B777001003A687F983A6C7F930
:102040002AC42EC697000010E78080E0C24852489C
:10205000E2477247635CA024850846853ACC3ECAB5
:1020600042C846C497100010E78040A36686EA86FF
:1020700097000010E780C0DDA2484248D24762477F
:10208000634405000508814863060C1637D5CCCC9F
:102090001305D5CC13030002254E6389672A33B696
:1020A000A8028507B305F7007D1C0D82B346C62044
:1020B0008606B386D84093860603A38FD5FE637742
:1020C0001E27B288D9BFA28766545AC1F650065B54
:1020D00072AD26874659D654265ACE886288B6599C
:1020E000664CD6865E86965AF64B096171A6937742
:1020F0004B00BDE337770010130747A18D476654A7
:10210000F650D654664C72ADDA884659265A065BAC
:102110004E88D686B659965A5E86F64B096131B618
:10212000A546814718109305000363FC8633850795
:10213000B306F700A38FB6FE7D1C938607FE130639
:102140007CFF91C26DF6B776001003A606F783A652
:1021500046F7B28C368D59B5377700101307C7A0F4
:10216000914771BF2686A2860145814597000010E0
:10217000E780802593770B40A2AC854DE38607E48A
:1021800045B7E6CA93773B00937C2B00DE846383DC
:10219000071E377C0010130CCCA16284330B940013
:1021A000711C688033068B40D686D2857D140299D7
:1021B000E31984FF910463810C02B387744163FDCA
:1021C00037012686D686D28513050002850402993A
:1021D000B3877441E3E737FFF6506654D64C46594F
:1021E000B659265A965A065BF64B664C2685D65447
:1021F0000961828042853ACA42C43EC897100010E5
:10220000E780C0842A86AE86E2AC97000010E780A3
:10221000A01BB777001003A487F983A4C7F92A8C01
:102220002286A686AE8C97000010E780C0CD22489B
:10223000C2475247634F05002286A6866285E6851F
:1022400097000010E780C0C02248C2475247635F32
:10225000A0103765666613057566930800021DA019
:102260003316A8028507B305F7000986158EB34615
:10227000C6208606B306D84093860603A38FD5FEF4
:10228000328839CE9356F841E39C17FD93763B0094
:1022900005466383C610DA884E88D6865E8672ADA0
:1022A000EFF0BF98AA84464DB64D3DB73ECCB77708
:1022B000001003A687F983A6C7F92245B2453ACE96
:1022C00046CA42C897000010E780E0C34248D2489F
:1022D000E2477247E34A05DA6394080885086DB35C
:1022E00093763B000546638AC61493060002E38496
:1022F000D7FA1306D00263950D0293764B0099EE40
:1023000093768B00C9DA13060002B386C700B305C3
:10231000C100AE962380C6FE8507B5BF1306B00286
:10232000B38627002380C6028507B5B7638067029E
:102330003E9C9305000313060002630CFC00850716
:10234000B306F700A38FB6FEE399C7FE930700021A
:1023500009B70A9C9306E00285072300DC02D5BD7D
:1023600093F61800E38206D2850839BB0508137876
:10237000E8FFC5B59147E3FE37E11384CBFFB30413
:1023800034015E842286D6860504D28513050002B8
:102390000299E31994FEF5BBE38F09EE63980D08EB
:1023A0009376CB00C1E663F33703938607FE99CE9D
:1023B0001306000311A095DA8507B306F700A38F73
:1023C000C6FE938607FEE3E837FF05B793060002D3
:1023D000E395D7F2C9B5E6CA93773B00937C2B000F
:1023E0005E84B9CFB7740010938484A1138BD4FF9B
:1023F000228CA8806286D686D285FD14050C0299AF
:10240000E3199BFE93043400E3880CDCB38774412A
:10241000E3F437DD2686D686D285130500028504CF
:102420000299B3877441E3E737FF7DB3FD19E3FEFB
:1024300037EB938607FEADFE4DBDE38809EAB9BFD1
:102440008D47E3F137FB1384DBFF4E94DE84268651
:10245000D6868504D285130500020299E39984FE8D
:1024600051B7B7760010938606CCB366DC20904255
:10247000D442B28C368D9DB675714AC1DAD8DED69B
:10248000E6D23AADB28CB68B3A85BE853A86BE8628
:1024900022C526C3CEDED2DCE2D406C7CA49BA843E
:1024A0003E84428A468C97000010E780004B2DED59
:1024B000B777001003A687F883A6C7F8E2AC9700A9
:1024C0000010E780E0986341A006B777001003A6EC
:1024D00007F883A647F8E2AC97000010E780A0A2B7
:1024E00063440504E2AC01468146D6DAEAD0EECE7A
:1024F00097000010E78020A126D0931AF469634367
:102500000500A28A9317B028B3F7F90013F7094022
:102510003ECA3AC8B3E754010DEFC9E3D247194A9E
:10252000638C074615483DA82687A2874EC9E288D6
:102530005288DE8666867AAD2A44BA409A440A49B1
:10254000F659665A465BB65B265C965C49616FF04D
:102550007F9BB1E7D2476381074402C8C247014865
:1025600063C54749E2AC0146814642C89700001066
:10257000E780609942482687D68763540500939781
:10258000FA699399B94893E90940D65A065DF64D20
:102590004EC9E288DE8666867AAD79BF194A13D5C0
:1025A0004A011375F57F130515C097000010E780E9
:1025B000E049B777001003A607FA83A647FA970009
:1025C0000010E780A09FB777001003A687FA83A6C4
:1025D000C7FA97F0FF0FE780C0E49397CA00370768
:1025E000F03FB183D98FAE8DBE85B777001003A6BB
:1025F00007FB83A647FB2A8D268597000010E780FE
:10260000A0DCB777001003A687FB83A6C7FB970063
:102610000010E780A09A2A86AE866A85EE8597F03C
:10262000FF0FE78000E097000010E78040362AC8DF
:1026300097000010E7808041B777001003A607FCE1
:1026400083A647FC2ACC2ECE97000010E780009787
:10265000B777001003A687F983A6C7F997F0FF0F95
:10266000E78020DC97000010E7806032B777001029
:1026700003A687FC83A6C7FC2A8DF2456245970016
:102680000010E780A0932ACC6A856AD22ECE9700EC
:102690000010E780A03BB777001003A607FD83A6D4
:1026A00047FD97000010E78060912A86AE8662455C
:1026B000F24597000010E78020D12A86AE862A8D49
:1026C000AE8D97000010E780608F2ACC2ECE6A86F0
:1026D000EE866A85EE8597F0FF0FE78080D4B777A6
:1026E000001003A687FD83A6C7FD2AD42ED6624517
:1026F000F24597F0FF0FE780A02A377800100326F5
:1027000008FE832648FE97F0FF0FE78080D12A86D7
:10271000AE866245F24597F0FF0FE7806028B777F5
:10272000001003A687FE83A6C7FE97F0FF0FE78081
:1027300040CF2A86AE866245F24597F0FF0FE780CC
:102740002026B77700102ACC2ECE03A507FF83A53D
:1027500047FF6A86EE8697000010E780E0C62A866B
:10276000AE866245F24597F0FF0FE78080CB2A8660
:10277000AE862255B25597F0FF0FE7806022B777FB
:10278000001003A687FF83A6C7FF97F0FF0FE7801F
:1027900040C9925701469387F73F939647019700A8
:1027A0000010E780A0812A862AD2AE862ECCF6AC15
:1027B00097F0FF0FE7802075E24712576353050239
:1027C00037780010BE85C247032608FE832648FEE0
:1027D000FD173A853EC897F0FF0FE780601C2A87F7
:1027E000AE87C2469305600C3A86938636063E85D0
:1027F00013FD290063E5D512D246914D639E061262
:102800009146B68D63F7860163150D1E9306CCFFC6
:1028100036CAC24691CAF6AC3A86BE8697F0FF0F1A
:10282000E78000182AD0AE8AE2AC0146814697F0D4
:10283000FF0FE780406D6340051A0257D687D248E4
:102840009396B94893D95948528836C06686DE8631
:102850007AADFD19EFF00FEB93F909022A86DE86B7
:1028600013855904DA85130416000299C24737DE2E
:10287000CCCC938EFDFFB306F040C2471818130E60
:10288000DECCB3E6D70A13D8F701814733B6C603C7
:10289000850793B5A600B308F700138307FE0D82E2
:1028A0003345C6200605898E93860603A38FD8FE7E
:1028B000B28699E1E31C03FC954636C476C202C099
:1028C0002286A948DE867AADEFF04FC2AA8463085B
:1028D0000D02330495416374840333868C00DE86D5
:1028E000DA851305000205040299E36884FF338743
:1028F000944105078147637BEC0C8504BE94BA4084
:102900002A44D65A065DF64D0A49F659665A465B80
:10291000B65B265C965C26859A4449618280D246E5
:1029200099EA9546B68DE3F886EF63160D0C93068B
:10293000BCFF36CACDB5954D498EE30106C2B776C8
:10294000001003A6060083A64600F6AC3ACA3ECCA9
:1029500097F0FF0FE780C04F5247E24763410502FF
:10296000B776001003A686F783A6C6F7F6AC97F0F5
:10297000FF0FE7804059E34305BE5247E247630B30
:102980000A0293F609409DC67D1A63F58D01630A1C
:102990000D04094D02CAB5BD93F729003E8D95E39C
:1029A00093374C00FD171307CCFFF98F3ECA02C8BE
:1029B000914D9DBDE3F08DFF63050D0202CA094DE7
:1029C00089BD02CA02C8094D914DB9BD9387FCFF6C
:1029D000E297858F1DB702569396FA69B6873287BC
:1029E000B9BDB306BC4136CA2DB53308FA407D18CF
:1029F00095BE094D39BD094D39BDB7370010357148
:102A00009387A79F26CB4AC94EC752C5E6DA06CFA1
:102A100022CDEAD8A3A5F1822E8AB68C3A89B28952
:102A2000AA846388053A03C50C00014D630C053A7E
:102A300056C3DEDEB77A0010B77B00105AC1E2DC65
:102A4000EED6938A0AB2938B4BB6130B50024144D5
:102A500011A86A86CE86D2858294050D03C50C0026
:102A600063040510850CE31665FF814603C50C0061
:102A700013871C00930705FEE19F6366F400B3C74C
:102A800057219C438287930705FDE19F2546637785
:102A9000F6089307A002814D6305F51A9307E0023B
:102AA00001486301F50A930785F9E19F4946636F81
:102AB000F602B3C777219C43828793E61600BA8C4F
:102AC00075B793E62600BA8C55B793E64600BA8CE4
:102AD00071BF93E60601BA8C51BF93E68600BA8CAB
:102AE00071B703C51C0093E606100507930770062F
:102AF000BA8C63E5A70A93074002E3FCA7F49307A7
:102B0000B5FDE19F13072004E365F7F43777001064
:102B1000130707BBB3C7E7209C438287814DB3CD22
:102B2000BD21B3ADAD200883BA8C938D0DFD930705
:102B300005FDE19F0507E374F6FE9307E0020148F7
:102B4000E313F5F603C51C00A54593E6064093077D
:102B500005FDE19F3A8663F5F50C9307A002630635
:102B6000F52ABA8C050781B79A4A0A4BF65B665C70
:102B7000B65D6A8463643D01138DF9FFCE866A8673
:102B8000D28501458294FA4022856A44DA444A4952
:102B9000BA492A4AD65C465D0D618280930575F973
:102BA00013F7F50FBD47E3E6E7EA256613061604BB
:102BB000B317E028F18F639B07222946630DC708EE
:102BC0001D46E318C7E80327090011096302072619
:102BD00093E81602BA869800254531A013B606017F
:102BE00063110626918213F6F6009305760363645B
:102BF000C5009305060385073306F700A30FB6FE4D
:102C0000138607FE61FEA14646C442C036C26A86EC
:102C1000C1480148CE86F2ACEFF04F8D2A8D3DBD04
:102C20003348082105063328A8200882130808FD28
:102C3000930705FDE19FE3F5F5FEB28C130716003F
:102C40009DB5832D0900110963C20D0803C51C0041
:102C5000BA8C0507A1B5930749003ED4032C09009F
:102C60004286630F081A03450C006296E2876304EC
:102C700005326385C700D883850765FFB387874121
:102C80003ED293F706406385071C93F726003ED09B
:102C90009257B3D7070B3ED28257638C073A8947C6
:102CA0003ED0B307A8013ECE6A8921A84A86CE86C7
:102CB000D285829405093307A94162970883630B83
:102CC000051AF247E39427FF3E8D75A203C51C0049
:102CD00093E62600BA8CB30DB0410507C1B303C516
:102CE0001C009307C006E310F5E003C52C0093E633
:102CF000063013873C00DDBB03C51C0093E60620AD
:102D00000507EDB303C51C00930780066305F52294
:102D100093E606080507D9BB9377D50F1377F50D12
:102D20001D099387B7FB130797FB137989FF93B7A7
:102D300017001337170003250900832549002E07C4
:102D40009607D98FD58F3EC02A87AE876A86EE88D0
:102D5000CE86F2ACEFF04FF221092A8D01B3930732
:102D60006004630EF5101D09137989FF032709001C
:102D7000832749006A8636C0EE88CE86F2ACEFF033
:102D80006F9821092A8DD9B96A86CE86D285130516
:102D900050028294050DD9B193074900898A3ED02B
:102DA000130C1D006386061A034509006A86CE8649
:102DB000D285829485476E9D63F1B7216286CE8667
:102DC000050CD285130500028294E319ACFF025969
:102DD00071B103C50C00B7240010938484C2014D67
:102DE000E31805C40144E36B3DD979B39307F006BA
:102DF000630AF50863F7A72A930780076306F518A7
:102E00002946BD9A328C02DC49A00328090003C57B
:102E10002C00890C13871C003368080A110961B162
:102E200003450C007D566296E287E31405E4A5A2F3
:102E300093F8F6FE93F6064093E818029800E38CA8
:102E400006D8A14646C442C036C26A86C148D1B33C
:102E500093F726003ED06380072489473ED06A89D5
:102E60004A86CE86D285829405093307A9416297A6
:102E700008837DF54A8D8257C9E32259C5B693E68A
:102E80000602D5B52146328C02DC13FF064013F34F
:102E900036FF63060F0013F326FF130F00409376EF
:102EA0000320639F061093770310930E4900639BE2
:102EB00007481377030469EF137703086309075280
:102EC00003560900631606121373F3FE63020F1212
:102ED0008147980076CE1AC46EC242C0E2886A86E4
:102EE0000148CE86F2ACEFE07FE02A8D7249BDB694
:102EF00093F726003ED0638C07506A899257E3FE11
:102F0000B7F7EA9D338DFD404A86CE860509D28506
:102F1000130500028294E319A9FF225981B6930791
:102F200080056301F50293072006631FF54E0946ED
:102F3000328C02DC99BF03C52C0093E6060C138784
:102F40003C006DB6414693E60602328C02DC35BF8A
:102F5000854763FEB705130CFDFFB307BC013ECEEA
:102F60006A8C6286CE86D285130500028294F2476F
:102F7000050CE318FCFE034509006286CE86D28567
:102F800082946E9D0259D9BC4146328C02DCF5BD5B
:102F90000346090005BF93F706403ED2B1DB93F725
:102FA00026003ED2638207466A8902D281BF03456A
:102FB00009006A86CE86D28582940259628D79BCD8
:102FC0001D09137989FF032E0900832E4900210969
:102FD000B367DE01639907221373F3FE63050F22C3
:102FE000814798001AC46EC242C0E2886A8615B151
:102FF00013575348130E100619C3130E1004591E0D
:103000009800A545B3768603850763E5D5029386C8
:1030100006033305F700A30FD5FE938607FEE38B67
:1030200006EAE36986EB335686038507B3768603A3
:10303000E3FFD5FCF2963305F700A30FD5FE938688
:1030400007FEE38906E893360601E39506E8118258
:1030500055BF925763F2B73D930700403ED0925759
:103060003389AD013309F94042CE6A86CE86D285D6
:10307000130500028294050D7248E3172DFF0345E6
:103080000C00E30C05DE93871D003ED28257E388D7
:1030900007DC02D039B19257E3E3B7FD85073ED292
:1030A0007DBB9307900613F3F6FE631AF53613FF04
:1030B000064063040F0013F3E6FE89C51305C5F946
:1030C000631C053093750320B5E993770310130C47
:1030D00049006390072213770304630F071E034719
:1030E0000900BA869358F701630E071CB7DECCCCF3
:1030F000938EDECC980021A0138607FE1DC233B646
:10310000D603850793B5A600330EF7000D8233452D
:10311000C6200605898E93860603A30FDEFEB286BF
:10312000E1DD42C01AC46EC246886A86A948CE86CE
:10313000F2ACEFE0BFBB62892A8D0DB21D09137995
:1031400089FF8323490083250900210993DFF301C7
:10315000B3E775006388072693D7F341BD8D3387A6
:10316000F540B3C37700B387F34037D5CCCCB3B3C6
:10317000E50037DFCCCCB3837740BA851305D5CCD7
:10318000130FCFCC81479800A542B386750033B6A4
:10319000B600B29633B6A6029E888507330EF700B6
:1031A000AE8E135C2600719A6296918EB386D540DE
:1031B00033B6D5003386C340499EB383E6031E96DB
:1031C000B3B3A602C99E1E96131CF60193531600B4
:1031D0008582E29633C6D62006063386C54013069E
:1031E0000603A30FCEFEB685639B080063E9D201F8
:1031F00042C01AC46EC27E886A86A94821BC9386E2
:1032000007FEC1F6F5B7935753481307100699C345
:1032100013071004930767FF3EDE9800814781463D
:103220007285F6853ADA1AD83ED642D432D272D0B6
:1032300076CE97E0FF0FE78060ECB2579376F50FFC
:10324000A545F24E025E1256225842535257850748
:1032500063E3D50493860603B305F700A38FD5FE79
:10326000938607FEE38006D8E256638AD6157285F8
:10327000F68581463AD61AD43ED242D032CE97E075
:10328000FF0FE78040BA72460258925722533257D6
:103290002A8EAE8E69B7F255AE96B305F700A38FAE
:1032A000D5FE63950E00BD46E3FEC6D3938607FEAA
:1032B000E38A06D29396CE01135E4E00369E93DECD
:1032C0004E00B1BF9800E31E0FE4930700032300F4
:1032D000F10498008547B1B513770308630207101E
:1032E000031709001356F740B346C700918EE99EB5
:1032F000D5BB8326090093D8F601EDCEB307D040A5
:10330000B7DECCCCB3E6F60A938EDECC980033B6AB
:10331000D603850593B7A600330EB7000D8233455B
:10332000C6200605898E93860603A30FDEFEB286AD
:1033300081E7938705FEE1FF42C01AC46EC246884A
:10334000AE87E5B30326090011E61373F3FE980078
:1033500063100F0693575348130E100699C3130EAC
:103360001004591E9800A545B3778603850663E4CB
:10337000F502938707033305D700A30FF5FE938764
:1033800006FE9DC763668603335686038506B377BC
:103390008603E3F0F5FEF2973305D700A30FF5FEA1
:1033A0009337060191E7938706FE99C311826DBF9B
:1033B00076CE1AC46EC242C0E288B6870DB6E36309
:1033C000CEC275B59800E3150FE293070003230002
:1033D000F1049800854729BD2946328C02DCC1B42E
:1033E00003270900B306E040B366D70AE5B9032610
:1033F0000900C9BC9800E3110FF4930700032300F0
:10340000F104980085450DBF930700403ED0E39836
:103410000DC422596FF08FE485073ED259B029467A
:103420009A86328C02DC95B413F3F6FE930575F997
:10343000BDB90111B7280010AE872AC436872C0009
:10344000B2861385A8EF7D5606CE3EC6EFF0EFDAC2
:10345000F2400561828083A7B182011106CE91CF2F
:10346000AA86372500102E87130525EF6C007D56A0
:103470008297F240054505618280852EF240014524
:10348000056182800D45731025BE7D15E35D05FE47
:1034900005651305058073104530736004307310A3
:1034A000003482800290FDBF411106C6E53F411104
:1034B00022C426C237740010B7740010130404939A
:1034C0009384849306C6EFE08FDB637794001C40FF
:1034D00011048297E36D94FEB2402244924441016C
:1034E00082801C412E85B285828783475501011158
:1034F0004AC806CE2E89D1C36352C00622CC26CA42
:103500009C813284AA84D91781E783474501B9CBCE
:10351000854701466303F4029306190085479882A4
:103520003E888507591709E703C7F6FF4D1729EFAE
:103530008506E316F4FE635886009C40B305C4403C
:103540003305C9008297B305890083C7F5FF62443C
:10355000CD1793B71700238AF400D244F2404249B2
:10356000056182801C41377500101305850089456F
:1035700082970546E312C4FAF9B71C41F2404A8526
:103580004249B28505618287B305C8403305C90049
:1035900063580601984036C63EC40297B246A24719
:1035A00098403775001013058500894536C63EC41E
:1035B0000297A247B2463E86A5BF9C4193060008EB
:1035C0002E872A88638AD7009386170094C1338791
:1035D000F5002302A700828083A73183011122CC4A
:1035E00006CE1384450091EF8546814714C33E976C
:1035F00023020701F24062440561828099CA9C4B14
:10360000E5D79443A2853E85FDDA83A6F182E39750
:10361000F6FE104342C63EC43AC2C13D3248A247FC
:103620001247F1BF397122DC26DA4AD856D206DEBB
:10363000B28A4ED652D45ECE26AD3684EFD03FFB52
:10364000B7470F0093870724AA9733B6A700370719
:1036500000802E967D17BE856374C7003A86FD559F
:10366000373A002013050AE697D0FF0FE78000A83D
:10367000FD57AA8B638FF40831C4B73900109389C2
:10368000A94E03A4318315C063930A0429A0638B58
:103690008700004819C81C4026866AACFDDB83A75A
:1036A000F182F5F7829900487DF4639D0B04F25096
:1036B00062544259B259225A925AF24B2685D25438
:1036C00021618280B73900109389294E5DBF5AD09D
:1036D000294B29A0638B8700004815C01C40268613
:1036E0006AACFDDB83A7F182F5F782992285930509
:1036F000F1000546A30761018299004865F0025B6D
:10370000E3870BFA13050AE697D0FF0FE780E0A8DE
:1037100079BF4A85EF302018AA84B9BF83A73183C7
:103720001387318399C76389A700138707019C4BCF
:10373000FDFB91C108C38280FDFD944B14C323A8F7
:103740000700828061A579714AD006D622D44ECE78
:1037500052CC2A89A307A100EFD07FE9B7470F0019
:1037600093870724AA9733B6A700370700802E96C1
:103770007D17BE856374C7003A86FD55B7390020B2
:10378000138509E697D0FF0FE780409603A43183A5
:103790002A8A05C426D229A0630DF400004809CC6A
:1037A0001C4005469305F1002285EDDB83A7F182DD
:1037B000E5F7253B00486DF49254631A0A00B250B5
:1037C0002254F249624A4A85025945618280138532
:1037D00009E697D0FF0FE780409CB2502254F2498F
:1037E000624A4A85025945618280411106C622C457
:1037F00026C22A84EF30200A8546AA8466AC368623
:10380000153503A4318311C45C4091CB82970048E5
:1038100065FCB240224426859244410182800048E2
:1038200065F4B24022442685924441018280717140
:1038300022D526D306D74AD14ECF52CD56CB26AC71
:10384000EFD0FFDAB7470F0093870724AA9733B664
:10385000A700370700802E967D17BE856374C700CA
:103860003A86FD55B7390020138509E697D0FF0F3A
:10387000E780C0872A8A373500102286A6866C002A
:103880001305A55B02C67536B24703A43183AA8A25
:10389000A9C315E002C663180A04BA502A549A5400
:1038A0000A59FA496A4A5685DA4A4D618280638B21
:1038B0008700004801CC1C400C082285FDDB83A753
:1038C000F182F5F732461531004875F403A43183CF
:1038D00002C671D05C4091C7829700484DDC5C40C5
:1038E000E5FF0048FDB7138509E697D0FF0FE78095
:1038F000C08A65B73971130341022ED29A8506CE6C
:1039000032D436D63AD83EDA42DC46DE1AC605371D
:10391000F240216182808280A38B0182828003C772
:1039200055009307F00F0145631DF70083C765003D
:1039300089EB83C77500FD1781E71336960019C21E
:1039400001458280B8812545A38BE18282800545AF
:10395000828085476384F500054582808347560051
:103960008346460003C77183A207D58F01456303D1
:10397000F7008280411106C65C826380B702094766
:103980006385E700B240410182800145130640068D
:103990008145EFD09FF90545F5B76C823882A205C5
:1039A00093F70510D98D89CB13D695003285058AFA
:1039B00093F5F507EFE08F827D5513D69500C5BFCF
:1039C00037750010130585DD82808547639FF500FC
:1039D0005C82639EB70003475600834746009D46BE
:1039E00022075D8F81476307D7003E85828081472C
:1039F0003E858280B7770010B2859306600A1386F1
:103A000007D36F1020640547B77700101889138516
:103A100007D18280D4819081B881FC81A206D18EA9
:103A20004207558FE207D98F1307004B6383E700E6
:103A300082804111014681457D5506C6EFD01FFAAF
:103A4000A3ABA184A3A9B184828003C571846FC094
:103A50005FB61387B1841C43411106C622C426C237
:103A60004AC0A5C7F3760430139637003316C02832
:103A7000F19BAFA5C744F18DEDFD0F00300354C39A
:103A80001C43238401840F00300323800700A18A94
:103A900073A006300144814403C57184EFC05FB058
:103AA00011E90144814466ACB24022449244024987
:103AB0004101828003C57184EFC0BFAF66ACB240E4
:103AC000224492440249410182801304803E814491
:103AD000E1B7411126C2AA8401454AC006C62E8913
:103AE000EF10700959C10145EF10F00C3DCD22C413
:103AF000EFD0FFAFB7470F0093870724AA9733B6DD
:103B0000A700370700802E967D17BE856363C70424
:103B10001385B18597C0FF0FE780405D31C5014532
:103B2000EF10700509C50145EF10F00815E5814556
:103B30007D55EF007038F5541385B18597C0FF0FA0
:103B4000E780A0652244B2400249268592444101A3
:103B500082803A86FD556DBFA6854A860145EF10E5
:103B6000F007AA8471F9C1BF2244F554E9BF41119D
:103B700006C622C4EFD0BFA7B7470F00938707241C
:103B8000AA9733B6A700370700802E967D17BE850B
:103B90006374C7003A86FD551385B18597C0FF0F42
:103BA000E780C05415C17D558145EF00F0300145D7
:103BB000EF10700D6DF91385B1852244B2404101BB
:103BC00017C3FF0F6700635DB2402244410182804A
:103BD00001114AC84EC606CE52C4AAADEFD03FA1CD
:103BE000B7470F0093870724AA9733B6A700370774
:103BF00000802E967D17BE856374C7003A86FD55FA
:103C00001385B18597C0FF0FE780404E19E5F2405C
:103C10004249B249224A056182800145EF10A075F0
:103C200045C922CC56C20144635020050145EF101E
:103C300090172A86B30789403346F60AB385890070
:103C4000014521C2EF10B00F81452A947D55EF0048
:103C5000B0260145EF103003EFD07F99A3AFA182CA
:103C6000A3A1B184E34424FD6244924AF240424954
:103C7000B2491385B185224A056117C3FF0F67005A
:103C8000C35181457D55EF0030230145EF10A07FE2
:103C90000145EF10406EAA870145F9D7EF10B0102B
:103CA00071F1EFD0DF9483A7F18337A7070083A6D4
:103CB0003184130707123E97B337F700B697E3E551
:103CC000B7FAE391F5FAE361A7FAE34124F769BF94
:103CD000F2404249B249814601471385B185224AE3
:103CE000A3AFD182A3A1E184056117C3FF0F6700D1
:103CF000C34A411122C41385B185814506C697C0C8
:103D0000FF0FE780203031E51387B1841C4395CF46
:103D1000F3760430139637003316C028F19BAFA515
:103D2000C744F18DEDFD0F00300383C781848545C5
:103D300054C3E19F18432384B1840F003003230050
:103D40000700A18A73A00630A1C7B24022444101F6
:103D5000828081457D5526C2EF0010160145EF1087
:103D60008065AA841385B18597C0FF0FE780E04284
:103D700099C883A7718581CB22449244B24003A5A0
:103D8000318541018287B2402244924441018280C0
:103D9000EFD00FB82A84EFD09F859307853E33B6C6
:103DA000A700370700802E967D17BE856374C70075
:103DB0003A86FD5522852244B240B74600109386CC
:103DC00026A58547014741016FD02FB54111B7079F
:103DD00000D022C4804306C6EFD08FB3EFD0EFDA15
:103DE00063078500B2402244014541018280B777D4
:103DF000001083C7C70281450145EF10D0721385BB
:103E0000B1851C41DDC70545EFC0FFD4B7450010A3
:103E1000AA87619D938525CFA383F184EFC08FFC92
:103E200003C571848545EFC04FF43945EFC0AFF944
:103E300025E19387B18423A0070023A20700EFD0D8
:103E40002FAD2A84EFD0AFFA9307853E33B6A70093
:103E5000370700802E967D17BE856374C7003A86AB
:103E6000FD55B74600102285938626A58547014754
:103E7000EFD0AFAAE34805F637350020130585E2F9
:103E80008545EFF0BF89B24022440545410182805B
:103E90000545EFC0AFE6AA851385B184EFC03FDAD0
:103EA000B74500109385A5A401463945EFC0AFFB87
:103EB000E1B7EFC03FD481BF37750010130545E768
:103EC000828037750010130505E28280B747002015
:103ED00083C607A1011106CE2A87B9CE11EF373567
:103EE0000020930790401305855C3C8D930740307C
:103EF0001C8DF24005618280954763E9E704B7773E
:103F00000010938787E0373500203347F7201305EB
:103F1000855C1843130625008147CD4531A0148EDA
:103F2000050709066381B70214838507E19FE5FA57
:103F3000860793E707306DBF2AC6C545138507A1DD
:103F40009120324761BF930780325DB7014555B775
:103F5000156539711305753406DEEFD07FA7AA8782
:103F600005466800A5458297D24762471386318689
:103F700093D787695CC2F25013578769A3A1E18682
:103F8000216182808547638DF518938731869883F8
:103F90002548FD1593564740138606036345D818F8
:103FA000108985466389D51C3D8B254693060703FA
:103FB000636EE61654890947638FE51AD88325484E
:103FC00093564740138606036345D81630898D46BD
:103FD0006383D51A3D8B254693060703636EE6146B
:103FE000748911476389E518B8832548935647407B
:103FF000138606036345D8142302C5009546638CD7
:10400000D5163D8B254693060703636DE612A30282
:10401000D50019476381E516F88325489356474034
:10402000138606036343D8122303C5009D466384A9
:10403000D5143D8B254693060703636BE610A30357
:10404000D50021476389E51203C7470025489356E9
:104050004740138606036340D8102304C500A546D5
:10406000638BD5103D8B1306070363E9E60EA304AB
:10407000C50029476381E51003C7570025489356BB
:10408000474013860603634ED80C2305C500AD4692
:104090006383D50E3D8B2546930607036366E60CC6
:1040A000A305D50031476388E50C03C767002548A1
:1040B00093564740138606036354D800138676034D
:1040C0002306C500B5466388D50A3D8B2546930671
:1040D00007036374E60093067703A306D500394708
:1040E000638BE50883C77700254613D747409306BF
:1040F00007036354E600930677032307D5003D4783
:10410000638BE506F98FA5461387770363E4F60012
:1041100013870703A307E500C147638EF504410534
:10412000230005008280138676039DBD93067703E6
:1041300051B51386760359BD9306770355B513869B
:1041400076035DBD93067703D9B513867603E9BD83
:1041500093067703EDB51386760301B7130677034D
:1041600039B71386760315B793067703A305D500F1
:104170003147E39CE5F22E95230005008280411132
:1041800006C622C47D2437041150B147B70500206C
:104190003CDC9385A5321306F00F3945EFC0AFCC58
:1041A000B7370020130600041385075F8145EF2011
:1041B000E055AA870545C88BB705105023A205080E
:1041C0002E871308000823200708930607101306FC
:1041D000000442979385450898D7239CC70023A2E3
:1041E0000700A3800702239CC702A38D070223A216
:1041F0000702239107038CC7D4C7D4D797C0FF0FFA
:10420000E78020FD054528C037070020F56778C402
:10421000C1072328F408B2402244B7271150416750
:10422000F8C741018280854539456FC00FB43735E5
:104230000020130505610146814515ACA385B186B3
:1042400099C5B72711503707020023A8E7088280D5
:104250009C8193F7F70791C38280D8819547E31D2E
:10426000F7FEB881B707115098C38280F0810548E6
:104270000D8A630F060FA88103C7550083C545004B
:10428000935675009378F507B3A7D82037330020ED
:1042900022074D8F96071303035F9A971377F77FD3
:1042A000B3C50601A88BA3810700A38DC700239C7B
:1042B000E700CC8B63850609B70510509385450848
:1042C00013956800B3E5B8201A950CC523A0050026
:1042D00063850808B70710509107B3E7F8205CC161
:1042E00001111307F703198306CE89479315770049
:1042F0006304F6009315670003A6F186B3A7D820E0
:1043000096073307B6009A97A3A7E186D0C7B715DB
:104310001050637AB706B3A7D82096079A9703C7B9
:10432000B701B7051050D4432D8E9317A701F24063
:10433000D18F9397F7299CC2054505618280B70705
:1043400010509387070893956800B3E7F8209A9573
:104350009CD523A00700639F08009606B70710505E
:104360009A969387071023A20600DCC60545828033
:10437000014582803705105021059387F8FFB3E788
:10438000A720DCD1B1BF3EC636C446C2EFD02FEE67
:10439000B247A2469248D047B73700201383075F41
:1043A0009DBF17C3FF0F6700C3E293F7F5079D8119
:1043B000B3A7B7203735002096071305055F4111D5
:1043C000B2853E95368606C65D20B2400545410160
:1043D000828013F5F50719E593B715008507372790
:1043E00011503CD79D813325B520B73700201605E5
:1043F0009387075F3E951316B028814517C3FF0FBB
:104400006700036D93F7F50791E382809D81B3A761
:10441000B7203735002096071305055FFD753E95DB
:104420009385F57F0146A301050017C3FF0F6700C1
:10443000236A411106C6B7270240B706001094C38D
:1044400037070240B737024094C321071C43B3F734
:10445000F640EDFF0566814537051050EF20002B33
:10446000B240B70711502547F8DB41018280411166
:1044700022C406C68547231AC500231B05000CC9A4
:10448000230DF5002A8497C0FF0FE780C05E19C591
:10449000B72711503707020023A8E708228597C0E5
:1044A000FF0FE780C05F01C98547230EF400B240CB
:1044B00022444101828022852244B240410117C337
:1044C000FF0F6700E365011126CA4EC6B7790010D9
:1044D00022CC4AC852C403C7718806CE2A89938960
:1044E00009F3014481470DA083A7B188B697BDCBDE
:1044F000DC474A850504829703C77188619CA287BF
:104500009306170063CA8600998F93165400960786
:10451000E36CE4FCCE97E9BF373500201305051C9A
:10452000130640058145EF20601EB7360020FD5779
:104530009386461C37370020DCC69CC61307471DF0
:10454000DCC29CC21CC35CC31CC75CC71CCB5CCB5D
:104550001CCF5CCFF2406244D2444249B249224A65
:10456000056182800290F2406244D2444249B249DD
:10457000224A0561828082808280014582800145D5
:1045800082808280828082808280B73700209387F9
:10459000071CC8833335A0008280B737002093877B
:1045A000071C8843135525488280011152C4373AAD
:1045B00000200347EAE506CE9307F00F6316F70ED7
:1045C0006389050E56C25AC0BAAE373500201306AD
:1045D000400581451305051C22CC26CA4AC84EC693
:1045E000EF20C0121385B187A3870188EFC08FE049
:1045F000373500201384B187130545E5A3AB8186C9
:10460000EFC08FE137340020130504E4EF204005AC
:10461000130404E4B7470010A3A18188938767A01F
:1046200099C713857188EFF00FBEA3A5A1883779CC
:10463000001003C77188130909F3014481470DA0D5
:1046400083A7B188B69795C7DC4385C7829703C710
:1046500071880504619C93061700A28763C78602D0
:10466000998F931654009607E36CE4FCCA97DC43D9
:10467000F1FF02906244D2444249B249924A024B4D
:104680000145F240224A05618280FAAE230F5AE5C5
:10469000EFF0FFAE79DD5685EFF0FFB86244D2440B
:1046A0004249B249924A024BF240224A054505610D
:1046B000828002900145F1B75971DAC8373B00207A
:1046C0000347EBE586D69307F00F6308F71EA2D4E5
:1046D000CECE37740010B7390020A6D2CAD0D2CCC3
:1046E000D6CADEC6130484E89389091C214983AB2A
:1046F000318883A74B017377043093963700B31644
:10470000D028F19B2FA6D744758E6DFE0F00300385
:1047100023ACEB004C105E85EF10D02B03A74B01B0
:1047200083A78B010F00300323000700A18B73A028
:104730000730630D0516834751026362F916B3C74C
:1047400087209C438287A257DDD33255829745B795
:104750008345810293F6F50713D77500B3A7362179
:10476000BA9703C74703799B238AE70203C7470326
:104770006D9B238AE7026386061483C7470103C73C
:10478000718863F0E71203A7B1889607BA97638E22
:1047900007109C4FB256034691020345410282978F
:1047A000B9B783C7F1886382071083C7F188FD1703
:1047B000A387F18883C7F1889DFBB7370020938BCF
:1047C000071C83C70B00E2C4014593E71700238051
:1047D000FB0083C74B03034C4102F99B238AFB0276
:1047E00083C74B03ED9B238AFB0283C75B03F99BC3
:1047F000A38AFB0283C75B03ED9BA38AFB02EF0046
:1048000090148347810213070006F98F638FE70036
:10481000130700046389E70E225785467D8B630FDB
:10482000D71489466300D7104DCF0290034541024B
:104830008145EFF01FBA0345410293050008EFF0F0
:104840005FB9264C6DB583A70900858BE38107EA24
:10485000253B71BD03454102EFF0FFC6EF00D00CD0
:10486000A2572381F90061B583C73900858BE380A6
:1048700007E822551133A5BD03454102EFF0BFC43F
:10488000EF00900A0133A5B583A70900858BE3806B
:1048900007E603A5090013553548F53189BD029097
:1048A000B9B59306170063D6F602029026549654C3
:1048B0000659F649664AD64AB64BB650464B65612C
:1048C0008280B2560346910203454102EF00300D4B
:1048D00039BD998F377700109607130707F3BA97FA
:1048E0004DBD130700026384E722A1F383479102C1
:1048F0002547E36CF7F2377700101307C7EAB3C711
:10490000E7209C438287374500101305A59CEF00E4
:104910009003628530108545EFF02F8BE30805F09A
:10492000264CF1B38345C10213F70507E31F07EED9
:1049300013F7F507B326772113D87500C29683C6FF
:10494000460103C6718863E7C60A13051600634073
:10495000D520918E377600109606130606F3B29690
:10496000638A071EC84A36C2EF00E07D9246628520
:104970003010DC4A8545829745F54DBD8346C1021E
:104980003D47E365D7EAB387DB0083C7470003C72A
:10499000718863EAE70693061700E3C9F6E8B38B6C
:1049A000E740B7770010960B938707F3BE9B03A5EC
:1049B0004B01EF00407983A74B013010628585459C
:1049C000829739FD8347810293F70706E39007E654
:1049D00083479102854BD917E3EAFBE4EF00A07609
:1049E00003479102A9476302F72462852C10DD2B4F
:1049F000264CF5B903A6B1889606B296638C0714C7
:104A0000E38606E285B703A7B1889607B30BF700E4
:104A1000E39F0BF821BD8347A10203C71B006380FE
:104A2000E71E03C71B0063130732A380FB006386E6
:104A3000071CFD1713F5F70FEFF0AFC801C9E6C269
:104A40005C81BE8C8947638FFC20964C029002905B
:104A5000A3800B00E1BB83C71B006285854613065C
:104A600021022C102301F102F12B264C49B10355F0
:104A7000A102BD4713578500619DE3E9E7DAB777E7
:104A80000010938747EDB347F7209C438287281097
:104A9000C1258345A1026285EFF06FF983C70B0042
:104AA000264C93E727002380FB0091B10357A10216
:104AB0008547E31DF7D683C70B0062852C10DD9B6D
:104AC0002380FB000523264C1DB183C70B008946BC
:104AD000628513D72700758F93D75748D98F130650
:104AE00021022C102311F102B12B264C09B10357DE
:104AF000A1028547E31CF7D283C70B0062852C1007
:104B000093E787002380FB00F129264CCDB683462E
:104B1000C1023D47E36CD7D0B387DB0083C74700B2
:104B200003C7718863FBE70403A7B1889607B30B3B
:104B3000F700E38D0BCE03A54B01312583A74B0175
:104B40006285301085458297E31C05DCC5B181463E
:104B5000E39E07CC83479102054513F6D70F630BFD
:104B6000A602E39407CCB3277721C29783C74703F4
:104B70006285894693D717489DB793061700E3C708
:104B8000F6CAB38BE740B7770010960B938707F30D
:104B9000BE9B55B70355A10205ED36C642C43AC2C5
:104BA0000345EBE5638DC708EFF0BF82124722484B
:104BB000B246B3277721C29703C74703136727007D
:104BC000238AE70203C7470313671700238AE70214
:104BD000E38806D4C84A36C2BD23924630108545C4
:104BE000DC4A628582970145B92B83A74B0393D793
:104BF0008748E38C07DE264CDDBCEFF0BF9862856A
:104C00002C10CD26264CE5B4EFE09FDB2A86E30F7F
:104C100005C07C8234826285A207DD8E2C101D21A6
:104C2000AA87E38507C0264CD9B46285DE862C109E
:104C300013062102230101023121264C4DBCEFF065
:104C40006FFC12472248B246B3277721C29703C7A9
:104C50004703759B238AE70203C74703799B238A8F
:104C6000E702BDB7EAC06EDE03477500B735002026
:104C700083C6051C93576748135757481207960772
:104C8000D98F13F7F6FCD98F2380F51C7C813481F2
:104C900037370020A207D58F37760010330DF50087
:104CA0009307471D93059500930D06F33EC263F9E4
:104CB000A509DC812D4785486397E7009C8183C85F
:104CC0003500BE95DC8111476392E70683C7718882
:104CD0003303BD40334303088146014763FDF604B7
:104CE00083A7B18813965600B297A9C303AE0701F4
:104CF0001A86628536CE46CC1AC62EC43ACA3EC83B
:104D0000029E2A8613359500A2453243E248F246B8
:104D100009E5C24752476378C30A83C7718885068D
:104D2000E19E138617003687E35AD6FA0290964C16
:104D3000064DF25D29BBB307F7409607EE977DB7A6
:104D4000EFF03F84964C064DF25D55BD814562857E
:104D50003EC4EFF0AFCE6285EFF0AFE403C72B00A7
:104D600062853AC2EFF02FF61247A2472381EB008B
:104D70006DB9EFF09F802A86E30A05AA1482628546
:104D80002C10C924AA87E39007EA4DB48355C102C9
:104D9000EFF0CF932A867DF151BC89476308F7086D
:104DA000EFF0EFFD2A86E31605E649B4EFF0CF9069
:104DB0002A86E30C05A66285C9462C106124AA87C1
:104DC000E39307E6A5B405456389A8046387080251
:104DD00003CE250081471303F00F39A08507E19F1B
:104DE0002302D50063FB17013305FE00619D5E952C
:104DF000834E4500E3846EFE15BF12453AC832C6A5
:104E00002EC4EF10000983C77188A245324642477D
:104E10008507B295E3DDE7E811BF884BB75700106F
:104E200093874771E316F5FAE6885DB7EFF06F896F
:104E30002A86E31005DED5BA55CA79715AC8373BC0
:104E4000002022D426D24AD04ECE52CC56CA5EC6BC
:104E500062C466C206D66AC02E84BE8BBA8A368900
:104E6000B284130B0B1C814C9549373C0020054A3A
:104E700015A883452B00034DECE5EF00D07AAA87F7
:104E8000A2856A8585CFEFF06FBE15C93C8013D728
:104E90007700630647052380FA00850C6386940536
:104EA0001C803E945C802285639B37016C808D89D9
:104EB000639725012C8093F50507C5DD02900290CC
:104EC0000145B250225492540259F249624AD24AE0
:104ED000424BB24B224C924C024D45618280238062
:104EE000FB00850CE39E94FB0545E1BF05458280F0
:104EF000BC8193F7070781C7029001458280411169
:104F0000B737002026C22E85AE8483C5271CB7374D
:104F1000002022C406C603C4E7E5EF00D07001E913
:104F20000290B2402244924401454101828066AC25
:104F30002244B240924441016FF04FB313D7750041
:104F400093F7F507130747033735002083A57187CB
:104F5000B3A7E7201305051C3E956F00F06113D73A
:104F6000750093F7F507130747033735002083A52E
:104F70007187B3A7E7201305051C3E956F001066E7
:104F80003735002093F7F5071305051C13D7750077
:104F9000B3A7A720BA9703C74703058B01C70290A1
:104FA0000145828003C74703373500200345E5E507
:104FB000011106CE13671700238AE7023EC6EFF001
:104FC000CFBE11EDB24703C74703799B238AE7029F
:104FD00003C747036D9B238AE70202900145F24015
:104FE0000561828003C6450083C6550003C765007E
:104FF00003CE050003C3150083C8250003C8350090
:10500000B73700209387C7182382C700A382D70031
:105010002380C701A380670023811701A3810701B3
:105020002383E70003C7750023A607008146A383F7
:10503000E7008C81014623A4070093C5F50F93F583
:1050400005083DBF03C8550003C7650003CF050031
:1050500083CE150003CE250003C3350083C8450069
:105060000111B737002006CE9387C7182380E701C8
:10507000A380D7012381C701A38167002382170181
:10508000A38207012383E70003C7750090C7239716
:105090000700A383E70003C7750003C86500220764
:1050A00033670701B356D70A2396D70005CB2A8862
:1050B000A1C615CE8387070013070004B3D6E60AFE
:1050C00063C40704373600201306C61481454285A1
:1050D000453D11CDF2400545056182808C818146B8
:1050E000014693C5F50F93F50508593D65F5029006
:1050F000F2400145056182808C83014693F50508E5
:105100004285BD3D61F9E5B7B7370020B2852AC6B3
:1051100036861385C71436C4EF10C0693248A246DC
:105120002A8693050008E9BFB73700209387C71880
:1051300023A0070023A2070023A4070023A607003B
:1051400023A807008280B737002023AEA7188280EB
:105150000347650003430500834815000348250005
:105160006C810346450083465500B737002093877E
:10517000C71823806700A380170123810701EC8BE8
:105180002382C700A382D7002383E700034775006B
:1051900023A4070023A60700A383E7008280B73774
:1051A00000209387C7189843011122CC06CE9D8119
:1051B000135777482A84630BB70299C60290F240CE
:1051C0006244014505618280BE85EFF06F88B73784
:1051D00000209387C718984B09C73E8622858D45C6
:1051E00002970545F240624405618280038707000B
:1051F00063410702884761D5B7350020368693851D
:10520000C51436C6EF10005BB246B737002093874F
:10521000C71803D7E7008C4703D667003697699F06
:10522000B6952397E7008CC7630FE60293B6060492
:105230009DEA03D6C7008387070013050004B30661
:10524000E640E99EB3D6A60A63C207066303C70811
:10525000373600201306C61481452285EFF05FD251
:1052600031DD054541B7984B11CB3E8689452285F6
:105270000297B73700209387C71811CD8C832285FA
:10528000814693C5F50F93F505080146EFF05FCF12
:1052900015D5054581BF81452285EFF08F93228585
:1052A00093050008EFF0EF9205452DBF630FC7008F
:1052B000B737002036861385C71436C6EF10804FE7
:1052C000B2462A869305000849BF930500080146A7
:1052D00069B78145014651B7011126CA06CEAA8495
:1052E000EFF0AFAA09E5F240D24405618280EFF009
:1052F000CFAA75F937370020B3C79420B3C7F7207A
:1053000013074708B3E6E720F0828E0769DEC1077E
:1053100022CC3384E700228536C6EF00D06893079D
:10532000F00363E4A70062447DBFB2460145EC820E
:10533000EFF0DFC06DD92285EF00F066B24693072B
:10534000F003EC8263F2A7026244F2409397740088
:1053500037360020D244130646003E9693060004DA
:10536000014505616FF0DFC16244F240D24401455E
:1053700005616FF0DFBE411122C406C62A84EFF03A
:10538000CFA011E5B2402244014541018280EFF0F7
:10539000CFA06DF9B347842037370020B3C7F7207B
:1053A00013074708B3E7E72003C54700B24022448C
:1053B0000589410182803345A5203345A5209317F7
:1053C000350037350020C1071305450841113E95CA
:1053D00006C6EF00D059B240410182803347A52074
:1053E000C16701113347E720FD1722CC26CAB33726
:1053F000F60013143700B734002013070401FD171B
:10540000938444084EC65D8EB30997004AC8699ECE
:105410002A894E8552C406CEEF00B0682A8AEFF082
:10542000CF9611E9F2406244D2444249B2495285D2
:10543000224A05618280EFF04F966DF5A294FC80C0
:10544000F5D34E85EF0030561304F003E37CA4FC43
:10545000EC800145EFF09FAE71D54E85EF00B05462
:10546000EC80637EA400373600201E091306460038
:105470004A96930600040145EFF09FB065B70145D9
:10548000EFF0FFAD45B7011126CA06CEAA84EFF0B2
:10549000CF8F11E50145F240D24405618280EFF0E3
:1054A000CF8F6DF9B3C79420B3C7F7208E07373776
:1054B0000020938647021307470822CC3384E60076
:1054C00022853EC6EF00B04A0DC1B73700201387D2
:1054D0004708B2474AC80145BA97AC833E89EFF006
:1054E000FFA511E56244424975B7624465B79397D9
:1054F0007400373700201307470093870704BA97D3
:10550000BE852285130600043EC6EF0090598345F0
:105510002900AA8609CD32462AC60145EFF05FA6CA
:10552000AA87324591EB029062444249A5B7EFF059
:105530001FA362444249B9BF62444249A9BF411115
:1055400022C4C1673344A52033448420FD17B337F8
:10555000F6000E0437370020FD1713074708130421
:1055600044023A945D8E26C2699EAA84228506C6AC
:105570004AC0EF00D0732A892285EF00503F93077D
:10558000F00363E9A700B240224492444A850249ED
:10559000410182802685C53DB240224492444A851D
:1055A0000249410182803345A5203345A520931748
:1055B0003500373500209387470213054508411110
:1055C0003E9506C6EF00303EB24041018280411157
:1055D00022C4373400201304440822851306800CAB
:1055E000814506C626C24AC0EF104012F167938774
:1055F00007201CC47D57A147B73500203735002050
:10560000A302E4002307F4009385C50B01478546F8
:105610001306000413054509A3890188EF00B02C87
:105620000547B735002037350020BA869385C50F6A
:10563000130600041305850AEF00F02A373900200D
:105640001305C913EFB00FDBB734002013854414E2
:10565000EFB04FDA1309C9139384441423202403B1
:1056600004D8B240232E0400232A04022244924488
:10567000024941018280B737002093874708945B35
:10568000985395C219CB23AE070023AA070223A87B
:10569000070223A007020545828023AA070223A848
:1056A00007020545828065DB23AE0700DDB783C7AF
:1056B000318941113737002006C61307470813F612
:1056C0001700232007002302070001CE898B3737FC
:1056D000002085C7B2401305870A854541016F0048
:1056E000107D3735002013054509EF00707783C71B
:1056F000318937370020898BF1FF1305870AEF00C6
:105700003076B240373700201305870A85454101BE
:105710006F00F07983C755000947639EE70003C710
:105720006500631AF700B73800209388480883C7DC
:10573000280089C70290014842858280011106CE67
:10574000B881930740022A832380E8009881254886
:10575000BA95D881BA86631CF700636606039C81FC
:10576000BE95D881C29733C80708E308D7FE95468F
:10577000BA876303D70211476397E70003C7550051
:10578000A9476306F704014542C2EFF0FFB412488F
:10579000F2404285056182801A8542C62EC41AC233
:1057A000EFF00FF5B73700201243A2453248938837
:1057B000470819C9BC81A380F8009881BA9542971F
:1057C000DC813348070845BF02900148D1B783C840
:1057D00005008946B737002037370020C6951A855F
:1057E0009387670813077708368642C446C2EFF0EE
:1057F000AFE49248224869D93908C29833C80808EA
:1058000059B71C821307000293F707066393E70258
:1058100003475600373800208346460013084808DF
:10582000834808002207558F81466387E800368544
:105830008280814636858280011106CE5882930887
:105840002002630A170763E0E8026304F704930782
:1058500010026316F70085476385F50A8546F24016
:1058600036850561828093073002E31AF7FE85478B
:105870006382F50AF515FDF193070000E5D37C82FC
:105880002C820145A207DD8D97000000E700000093
:10589000F1B785476387F506B7470010938747A19F
:1058A000D5DFF515C5FDB73500209385C508014541
:1058B000EFE04F9665B78547638EF5048D47E39F0C
:1058C000F5F87C82388237350020A20793761700DE
:1058D00033E6E70093C516001305850A36C6230292
:1058E000C80032C4EF00B05C93070000A5DB22467D
:1058F000B24501451356164897000000E700000026
:10590000B1BFB7370020B2859D461386C708EFF0B8
:105910006FF3A9B7B285EFF0EFEC89B7797122D4B4
:105920003734002026D24AD04ECE06D6130444087F
:105930007C80A6AD36896385B7083C80638B97026F
:1059400002900145B250225492540259F2494561E5
:1059500082809307000081CBB73700201385470969
:10596000EF00500361C90145EFF01F973C80639E33
:1059700097009307000091C7014597000000E700DA
:1059800000000145EFF03FB019C1054565BF37354F
:1059900000201305850AEF00807DE30809FE75F5F8
:1059A0009377F903FDF32C804E85EFF02FD971DD4D
:1059B0002C804E8581460146EFF08FDC054559B7B6
:1059C000B737002093854700B73700201385470974
:1059D00033C60608EF00B02D130700003DDB034778
:1059E00054009306F00FE306D7F6E30409F6B73741
:1059F0000020938747003306F90031A08507E38A2A
:105A0000C7F4034754009483E39AE6FE3EC4B737D5
:105A100000201385470932C6EF00C077A2473246FF
:105A200071FD8345540097000000E70000003246F6
:105A3000A247E9B797000000E70000002DB737350F
:105A4000002041111306C02481451305453506C6C3
:105A5000EF00D04B37380020373700203735002093
:105A60001308482D1307074A9308000493070010F2
:105A70008146014681451305C547A921B240373803
:105A8000002037370020373500201308483113072E
:105A9000C737130585359308000493070010814626
:105AA00005468145410139A93735002041111305CB
:105AB000C54706C6AD29373500201305853585292C
:105AC000B240054541018280411122C43735002092
:105AD0003734002006C61304443513054548230017
